{
  "_format": "hh-sol-artifact-1",
  "contractName": "AgentMech",
  "sourceName": "contracts/AgentMech.sol",
  "abi": [
    {
      "inputs": [
        {
          "internalType": "address",
          "name": "_token",
          "type": "address"
        },
        {
          "internalType": "uint256",
          "name": "_tokenId",
          "type": "uint256"
        },
        {
          "internalType": "uint256",
          "name": "_price",
          "type": "uint256"
        },
        {
          "internalType": "address",
          "name": "_mechMarketplace",
          "type": "address"
        }
      ],
      "stateMutability": "nonpayable",
      "type": "constructor"
    },
    {
      "inputs": [
        {
          "internalType": "uint256",
          "name": "agentId",
          "type": "uint256"
        }
      ],
      "name": "AgentNotFound",
      "type": "error"
    },
    {
      "inputs": [
        {
          "internalType": "address",
          "name": "mechMarketplace",
          "type": "address"
        }
      ],
      "name": "MarketplaceExists",
      "type": "error"
    },
    {
      "inputs": [
        {
          "internalType": "address",
          "name": "sender",
          "type": "address"
        },
        {
          "internalType": "address",
          "name": "manager",
          "type": "address"
        }
      ],
      "name": "MarketplaceOnly",
      "type": "error"
    },
    {
      "inputs": [
        {
          "internalType": "uint256",
          "name": "provided",
          "type": "uint256"
        },
        {
          "internalType": "uint256",
          "name": "expected",
          "type": "uint256"
        }
      ],
      "name": "NotEnoughPaid",
      "type": "error"
    },
    {
      "inputs": [
        {
          "internalType": "uint256",
          "name": "provided",
          "type": "uint256"
        },
        {
          "internalType": "uint256",
          "name": "max",
          "type": "uint256"
        }
      ],
      "name": "Overflow",
      "type": "error"
    },
    {
      "inputs": [],
      "name": "ReentrancyGuard",
      "type": "error"
    },
    {
      "inputs": [
        {
          "internalType": "uint256",
          "name": "requestId",
          "type": "uint256"
        }
      ],
      "name": "RequestIdNotFound",
      "type": "error"
    },
    {
      "inputs": [],
      "name": "ZeroAddress",
      "type": "error"
    },
    {
      "anonymous": false,
      "inputs": [
        {
          "indexed": true,
          "internalType": "address",
          "name": "sender",
          "type": "address"
        },
        {
          "indexed": false,
          "internalType": "uint256",
          "name": "requestId",
          "type": "uint256"
        },
        {
          "indexed": false,
          "internalType": "bytes",
          "name": "data",
          "type": "bytes"
        }
      ],
      "name": "Deliver",
      "type": "event"
    },
    {
      "anonymous": false,
      "inputs": [
        {
          "indexed": true,
          "internalType": "address",
          "name": "mechMarketplace",
          "type": "address"
        }
      ],
      "name": "MechMarketplaceUpdated",
      "type": "event"
    },
    {
      "anonymous": false,
      "inputs": [
        {
          "indexed": false,
          "internalType": "uint256",
          "name": "price",
          "type": "uint256"
        }
      ],
      "name": "PriceUpdated",
      "type": "event"
    },
    {
      "anonymous": false,
      "inputs": [
        {
          "indexed": true,
          "internalType": "address",
          "name": "sender",
          "type": "address"
        },
        {
          "indexed": false,
          "internalType": "uint256",
          "name": "requestId",
          "type": "uint256"
        },
        {
          "indexed": false,
          "internalType": "bytes",
          "name": "data",
          "type": "bytes"
        }
      ],
      "name": "Request",
      "type": "event"
    },
    {
      "anonymous": false,
      "inputs": [
        {
          "indexed": true,
          "internalType": "address",
          "name": "sender",
          "type": "address"
        },
        {
          "indexed": false,
          "internalType": "uint256",
          "name": "requestId",
          "type": "uint256"
        }
      ],
      "name": "RevokeRequest",
      "type": "event"
    },
    {
      "inputs": [],
      "name": "DOMAIN_SEPARATOR_TYPE_HASH",
      "outputs": [
        {
          "internalType": "bytes32",
          "name": "",
          "type": "bytes32"
        }
      ],
      "stateMutability": "view",
      "type": "function"
    },
    {
      "inputs": [],
      "name": "VERSION",
      "outputs": [
        {
          "internalType": "string",
          "name": "",
          "type": "string"
        }
      ],
      "stateMutability": "view",
      "type": "function"
    },
    {
      "inputs": [],
      "name": "chainId",
      "outputs": [
        {
          "internalType": "uint256",
          "name": "",
          "type": "uint256"
        }
      ],
      "stateMutability": "view",
      "type": "function"
    },
    {
      "inputs": [
        {
          "internalType": "uint256",
          "name": "requestId",
          "type": "uint256"
        },
        {
          "internalType": "bytes",
          "name": "data",
          "type": "bytes"
        }
      ],
      "name": "deliver",
      "outputs": [],
      "stateMutability": "nonpayable",
      "type": "function"
    },
    {
      "inputs": [
        {
          "internalType": "uint256",
          "name": "requestId",
          "type": "uint256"
        },
        {
          "internalType": "bytes",
          "name": "data",
          "type": "bytes"
        },
        {
          "internalType": "address",
          "name": "mechStakingInstance",
          "type": "address"
        },
        {
          "internalType": "uint256",
          "name": "mechServiceId",
          "type": "uint256"
        }
      ],
      "name": "deliverToMarketplace",
      "outputs": [],
      "stateMutability": "nonpayable",
      "type": "function"
    },
    {
      "inputs": [],
      "name": "domainSeparator",
      "outputs": [
        {
          "internalType": "bytes32",
          "name": "",
          "type": "bytes32"
        }
      ],
      "stateMutability": "view",
      "type": "function"
    },
    {
      "inputs": [],
      "name": "entryPoint",
      "outputs": [
        {
          "internalType": "contract IEntryPoint",
          "name": "",
          "type": "address"
        }
      ],
      "stateMutability": "view",
      "type": "function"
    },
    {
      "inputs": [
        {
          "internalType": "address",
          "name": "to",
          "type": "address"
        },
        {
          "internalType": "uint256",
          "name": "value",
          "type": "uint256"
        },
        {
          "internalType": "bytes",
          "name": "data",
          "type": "bytes"
        },
        {
          "internalType": "enum Enum.Operation",
          "name": "operation",
          "type": "uint8"
        },
        {
          "internalType": "uint256",
          "name": "txGas",
          "type": "uint256"
        }
      ],
      "name": "exec",
      "outputs": [
        {
          "internalType": "bytes",
          "name": "returnData",
          "type": "bytes"
        }
      ],
      "stateMutability": "nonpayable",
      "type": "function"
    },
    {
      "inputs": [
        {
          "internalType": "address",
          "name": "account",
          "type": "address"
        }
      ],
      "name": "getDeliveriesCount",
      "outputs": [
        {
          "internalType": "uint256",
          "name": "",
          "type": "uint256"
        }
      ],
      "stateMutability": "view",
      "type": "function"
    },
    {
      "inputs": [],
      "name": "getDomainSeparator",
      "outputs": [
        {
          "internalType": "bytes32",
          "name": "",
          "type": "bytes32"
        }
      ],
      "stateMutability": "view",
      "type": "function"
    },
    {
      "inputs": [
        {
          "internalType": "address",
          "name": "account",
          "type": "address"
        },
        {
          "internalType": "bytes",
          "name": "data",
          "type": "bytes"
        },
        {
          "internalType": "uint256",
          "name": "nonce",
          "type": "uint256"
        }
      ],
      "name": "getRequestId",
      "outputs": [
        {
          "internalType": "uint256",
          "name": "requestId",
          "type": "uint256"
        }
      ],
      "stateMutability": "view",
      "type": "function"
    },
    {
      "inputs": [
        {
          "internalType": "uint256",
          "name": "requestId",
          "type": "uint256"
        }
      ],
      "name": "getRequestStatus",
      "outputs": [
        {
          "internalType": "enum AgentMech.RequestStatus",
          "name": "status",
          "type": "uint8"
        }
      ],
      "stateMutability": "view",
      "type": "function"
    },
    {
      "inputs": [
        {
          "internalType": "address",
          "name": "account",
          "type": "address"
        }
      ],
      "name": "getRequestsCount",
      "outputs": [
        {
          "internalType": "uint256",
          "name": "",
          "type": "uint256"
        }
      ],
      "stateMutability": "view",
      "type": "function"
    },
    {
      "inputs": [
        {
          "internalType": "uint256",
          "name": "size",
          "type": "uint256"
        },
        {
          "internalType": "uint256",
          "name": "offset",
          "type": "uint256"
        }
      ],
      "name": "getUndeliveredRequestIds",
      "outputs": [
        {
          "internalType": "uint256[]",
          "name": "requestIds",
          "type": "uint256[]"
        }
      ],
      "stateMutability": "view",
      "type": "function"
    },
    {
      "inputs": [
        {
          "internalType": "address",
          "name": "signer",
          "type": "address"
        }
      ],
      "name": "isOperator",
      "outputs": [
        {
          "internalType": "bool",
          "name": "",
          "type": "bool"
        }
      ],
      "stateMutability": "view",
      "type": "function"
    },
    {
      "inputs": [
        {
          "internalType": "bytes32",
          "name": "hash",
          "type": "bytes32"
        },
        {
          "internalType": "bytes",
          "name": "signature",
          "type": "bytes"
        }
      ],
      "name": "isValidSignature",
      "outputs": [
        {
          "internalType": "bytes4",
          "name": "magicValue",
          "type": "bytes4"
        }
      ],
      "stateMutability": "view",
      "type": "function"
    },
    {
      "inputs": [
        {
          "internalType": "address",
          "name": "",
          "type": "address"
        }
      ],
      "name": "mapDeliveryCounts",
      "outputs": [
        {
          "internalType": "uint256",
          "name": "",
          "type": "uint256"
        }
      ],
      "stateMutability": "view",
      "type": "function"
    },
    {
      "inputs": [
        {
          "internalType": "address",
          "name": "",
          "type": "address"
        }
      ],
      "name": "mapNonces",
      "outputs": [
        {
          "internalType": "uint256",
          "name": "",
          "type": "uint256"
        }
      ],
      "stateMutability": "view",
      "type": "function"
    },
    {
      "inputs": [
        {
          "internalType": "uint256",
          "name": "",
          "type": "uint256"
        }
      ],
      "name": "mapRequestAddresses",
      "outputs": [
        {
          "internalType": "address",
          "name": "",
          "type": "address"
        }
      ],
      "stateMutability": "view",
      "type": "function"
    },
    {
      "inputs": [
        {
          "internalType": "address",
          "name": "",
          "type": "address"
        }
      ],
      "name": "mapRequestCounts",
      "outputs": [
        {
          "internalType": "uint256",
          "name": "",
          "type": "uint256"
        }
      ],
      "stateMutability": "view",
      "type": "function"
    },
    {
      "inputs": [
        {
          "internalType": "uint256",
          "name": "",
          "type": "uint256"
        },
        {
          "internalType": "uint256",
          "name": "",
          "type": "uint256"
        }
      ],
      "name": "mapRequestIds",
      "outputs": [
        {
          "internalType": "uint256",
          "name": "",
          "type": "uint256"
        }
      ],
      "stateMutability": "view",
      "type": "function"
    },
    {
      "inputs": [
        {
          "internalType": "address",
          "name": "",
          "type": "address"
        }
      ],
      "name": "mapUndeliveredRequestsCounts",
      "outputs": [
        {
          "internalType": "uint256",
          "name": "",
          "type": "uint256"
        }
      ],
      "stateMutability": "view",
      "type": "function"
    },
    {
      "inputs": [],
      "name": "mechMarketplace",
      "outputs": [
        {
          "internalType": "address",
          "name": "",
          "type": "address"
        }
      ],
      "stateMutability": "view",
      "type": "function"
    },
    {
      "inputs": [],
      "name": "nonce",
      "outputs": [
        {
          "internalType": "uint256",
          "name": "",
          "type": "uint256"
        }
      ],
      "stateMutability": "view",
      "type": "function"
    },
    {
      "inputs": [],
      "name": "numTotalDeliveries",
      "outputs": [
        {
          "internalType": "uint256",
          "name": "",
          "type": "uint256"
        }
      ],
      "stateMutability": "view",
      "type": "function"
    },
    {
      "inputs": [],
      "name": "numTotalRequests",
      "outputs": [
        {
          "internalType": "uint256",
          "name": "",
          "type": "uint256"
        }
      ],
      "stateMutability": "view",
      "type": "function"
    },
    {
      "inputs": [],
      "name": "numUndeliveredRequests",
      "outputs": [
        {
          "internalType": "uint256",
          "name": "",
          "type": "uint256"
        }
      ],
      "stateMutability": "view",
      "type": "function"
    },
    {
      "inputs": [
        {
          "internalType": "address",
          "name": "",
          "type": "address"
        },
        {
          "internalType": "address",
          "name": "",
          "type": "address"
        },
        {
          "internalType": "uint256[]",
          "name": "",
          "type": "uint256[]"
        },
        {
          "internalType": "uint256[]",
          "name": "",
          "type": "uint256[]"
        },
        {
          "internalType": "bytes",
          "name": "",
          "type": "bytes"
        }
      ],
      "name": "onERC1155BatchReceived",
      "outputs": [
        {
          "internalType": "bytes4",
          "name": "",
          "type": "bytes4"
        }
      ],
      "stateMutability": "pure",
      "type": "function"
    },
    {
      "inputs": [
        {
          "internalType": "address",
          "name": "",
          "type": "address"
        },
        {
          "internalType": "address",
          "name": "",
          "type": "address"
        },
        {
          "internalType": "uint256",
          "name": "",
          "type": "uint256"
        },
        {
          "internalType": "uint256",
          "name": "",
          "type": "uint256"
        },
        {
          "internalType": "bytes",
          "name": "",
          "type": "bytes"
        }
      ],
      "name": "onERC1155Received",
      "outputs": [
        {
          "internalType": "bytes4",
          "name": "",
          "type": "bytes4"
        }
      ],
      "stateMutability": "pure",
      "type": "function"
    },
    {
      "inputs": [
        {
          "internalType": "address",
          "name": "",
          "type": "address"
        },
        {
          "internalType": "address",
          "name": "",
          "type": "address"
        },
        {
          "internalType": "uint256",
          "name": "",
          "type": "uint256"
        },
        {
          "internalType": "bytes",
          "name": "",
          "type": "bytes"
        }
      ],
      "name": "onERC721Received",
      "outputs": [
        {
          "internalType": "bytes4",
          "name": "",
          "type": "bytes4"
        }
      ],
      "stateMutability": "pure",
      "type": "function"
    },
    {
      "inputs": [],
      "name": "price",
      "outputs": [
        {
          "internalType": "uint256",
          "name": "",
          "type": "uint256"
        }
      ],
      "stateMutability": "view",
      "type": "function"
    },
    {
      "inputs": [
        {
          "internalType": "bytes",
          "name": "data",
          "type": "bytes"
        }
      ],
      "name": "request",
      "outputs": [
        {
          "internalType": "uint256",
          "name": "requestId",
          "type": "uint256"
        }
      ],
      "stateMutability": "payable",
      "type": "function"
    },
    {
      "inputs": [
        {
          "internalType": "address",
          "name": "account",
          "type": "address"
        },
        {
          "internalType": "bytes",
          "name": "data",
          "type": "bytes"
        },
        {
          "internalType": "uint256",
          "name": "requestId",
          "type": "uint256"
        }
      ],
      "name": "requestFromMarketplace",
      "outputs": [],
      "stateMutability": "payable",
      "type": "function"
    },
    {
      "inputs": [
        {
          "internalType": "uint256",
          "name": "requestId",
          "type": "uint256"
        }
      ],
      "name": "revokeRequest",
      "outputs": [],
      "stateMutability": "nonpayable",
      "type": "function"
    },
    {
      "inputs": [
        {
          "internalType": "uint256",
          "name": "newPrice",
          "type": "uint256"
        }
      ],
      "name": "setPrice",
      "outputs": [],
      "stateMutability": "nonpayable",
      "type": "function"
    },
    {
      "inputs": [
        {
          "internalType": "bytes",
          "name": "initParams",
          "type": "bytes"
        }
      ],
      "name": "setUp",
      "outputs": [],
      "stateMutability": "nonpayable",
      "type": "function"
    },
    {
      "inputs": [],
      "name": "token",
      "outputs": [
        {
          "internalType": "contract IERC721",
          "name": "",
          "type": "address"
        }
      ],
      "stateMutability": "view",
      "type": "function"
    },
    {
      "inputs": [],
      "name": "tokenId",
      "outputs": [
        {
          "internalType": "uint256",
          "name": "",
          "type": "uint256"
        }
      ],
      "stateMutability": "view",
      "type": "function"
    },
    {
      "inputs": [
        {
          "internalType": "address",
          "name": "",
          "type": "address"
        },
        {
          "internalType": "address",
          "name": "",
          "type": "address"
        },
        {
          "internalType": "address",
          "name": "",
          "type": "address"
        },
        {
          "internalType": "uint256",
          "name": "",
          "type": "uint256"
        },
        {
          "internalType": "bytes",
          "name": "",
          "type": "bytes"
        },
        {
          "internalType": "bytes",
          "name": "",
          "type": "bytes"
        }
      ],
      "name": "tokensReceived",
      "outputs": [],
      "stateMutability": "pure",
      "type": "function"
    },
    {
      "inputs": [
        {
          "components": [
            {
              "internalType": "address",
              "name": "sender",
              "type": "address"
            },
            {
              "internalType": "uint256",
              "name": "nonce",
              "type": "uint256"
            },
            {
              "internalType": "bytes",
              "name": "initCode",
              "type": "bytes"
            },
            {
              "internalType": "bytes",
              "name": "callData",
              "type": "bytes"
            },
            {
              "internalType": "uint256",
              "name": "callGasLimit",
              "type": "uint256"
            },
            {
              "internalType": "uint256",
              "name": "verificationGasLimit",
              "type": "uint256"
            },
            {
              "internalType": "uint256",
              "name": "preVerificationGas",
              "type": "uint256"
            },
            {
              "internalType": "uint256",
              "name": "maxFeePerGas",
              "type": "uint256"
            },
            {
              "internalType": "uint256",
              "name": "maxPriorityFeePerGas",
              "type": "uint256"
            },
            {
              "internalType": "bytes",
              "name": "paymasterAndData",
              "type": "bytes"
            },
            {
              "internalType": "bytes",
              "name": "signature",
              "type": "bytes"
            }
          ],
          "internalType": "struct UserOperation",
          "name": "userOp",
          "type": "tuple"
        },
        {
          "internalType": "bytes32",
          "name": "userOpHash",
          "type": "bytes32"
        },
        {
          "internalType": "uint256",
          "name": "missingAccountFunds",
          "type": "uint256"
        }
      ],
      "name": "validateUserOp",
      "outputs": [
        {
          "internalType": "uint256",
          "name": "validationData",
          "type": "uint256"
        }
      ],
      "stateMutability": "nonpayable",
      "type": "function"
    },
    {
      "stateMutability": "payable",
      "type": "receive"
    }
  ],
  "bytecode": "0x60c06040525f80556001600655348015610017575f80fd5b5060405161371c38038061371c83398101604081905261003691610469565b604080516001600160a01b038616602082015280820185905281518082038301815260609091019091528490849061006d8161016b565b5050506001600160a01b0384166100975760405163d92e233d60e01b815260040160405180910390fd5b6040516331a9108f60e11b8152600481018490525f906001600160a01b03861690636352211e90602401602060405180830381865afa1580156100dc573d5f803e3d5ffd5b505050506040513d601f19601f8201168201806040525081019061010091906104ac565b90506001600160a01b03811661013157604051630ede975960e01b8152600481018590526024015b60405180910390fd5b600580546001600160a01b0319166001600160a01b03841617905560018390554660a05261015d6101cd565b608052506105949350505050565b610173610295565b51156101c15760405162461bcd60e51b815260206004820152601360248201527f416c726561647920696e697469616c697a6564000000000000000000000000006044820152606401610128565b6101ca816102fd565b50565b5f7f8b73c3c69bb8fe3d512ecc4cf759cc79239f7b179b0ffacaa9a75d522b39400f7f493aeac1d921aa02a044029e7fe4be43b1a4e80b40706fa5819e8fbb0d093525604051806040016040528060058152602001640312e312e360dc1b81525060405160200161023e91906104cc565b60408051601f1981840301815282825280516020918201209083019490945281019190915260608101919091524660808201523060a082015260c00160405160208183030381529060405280519060200120905090565b60606102f86102f3604051606b60f91b6020820152602560fa1b60218201526001600160601b03193060601b166022820152600160f81b60368201525f90603701604051602081830303815290604052805190602001205f1c905090565b6103c1565b905090565b5f61030782610416565b90505f8151602083015ff0905061036d604051606b60f91b6020820152602560fa1b60218201526001600160601b03193060601b166022820152600160f81b60368201525f90603701604051602081830303815290604052805190602001205f1c905090565b6001600160a01b0316816001600160a01b0316146103bc5760405162461bcd60e51b815260206004820152600c60248201526b15dc9a5d194819985a5b195960a21b6044820152606401610128565b505050565b6060813b600181116103e257505060408051602081019091525f8152919050565b806103ec81610515565b9150506040519150601f19601f602083010116820160405280825280600160208401853c50919050565b606081516001610426919061052a565b82604051602001610438929190610543565b6040516020818303038152906040529050919050565b80516001600160a01b0381168114610464575f80fd5b919050565b5f805f806080858703121561047c575f80fd5b6104858561044e565b935060208501519250604085015191506104a16060860161044e565b905092959194509250565b5f602082840312156104bc575f80fd5b6104c58261044e565b9392505050565b602081525f82518060208401528060208501604085015e5f604082850101526040601f19601f83011684010191505092915050565b634e487b7160e01b5f52601160045260245ffd5b5f8161052357610523610501565b505f190190565b8082018082111561053d5761053d610501565b92915050565b606360f81b815260e083901b6001600160e01b03191660018201526880600e6000396000f360b81b60058201525f600e820181905282518060208501600f85015e5f9201600f019182525092915050565b60805160a0516131596105c35f395f81816105ab015261172001525f81816108cd015261175501526131595ff3fe6080604052600436106102ac575f3560e01c8063a035b1fe11610165578063d843b7f4116100c6578063f5dcb7bb1161007c578063f698da2511610062578063f698da25146108bc578063fc0c546a146108ef578063ffa1ad7414610903575f80fd5b8063f5dcb7bb1461086a578063f6171e441461089d575f80fd5b8063e7d915cf116100ac578063e7d915cf146107f2578063ed24911d14610811578063f23a6e6114610825575f80fd5b8063d843b7f414610785578063d8a4676f146107c6575f80fd5b8063b94207d31161011b578063bdf8631711610101578063bdf8631714610719578063c7dec3fc1461072e578063cbd6407a1461075a575f80fd5b8063b94207d3146106bf578063bc197c81146106d2575f80fd5b8063a669aaf91161014b578063a669aaf914610671578063affed0e014610686578063b0d691fe14610699575f80fd5b8063a035b1fe1461063d578063a4f9edbf14610652575f80fd5b806358ce09091161020f57806391b7f5ed116101c55780639a8a0592116101ab5780639a8a05921461059a5780639c5e9590146105cd5780639ec4a5bf1461061e575f80fd5b806391b7f5ed14610550578063982c0db31461056f575f80fd5b806379412518116101f557806379412518146104bb5780637af73473146104ce5780638fb847ef1461050f575f80fd5b806358ce0909146104605780636d70f7ae1461048c575f80fd5b806317d70f7c116102645780633a871cdd1161024a5780633a871cdd1461040d5780634954bbf11461042c5780634ada3e611461044b575f80fd5b806317d70f7c146103ce5780631bbbeeb8146103e2575f80fd5b8063150b7a0211610294578063150b7a021461031b578063157305fe146103905780631626ba7e146103af575f80fd5b806223de29146102b7578062427c54146102dd575f80fd5b366102b357005b5f80fd5b3480156102c2575f80fd5b506102db6102d136600461270e565b5050505050505050565b005b3480156102e8575f80fd5b506103086102f73660046127b8565b60086020525f908152604090205481565b6040519081526020015b60405180910390f35b348015610326575f80fd5b5061035f6103353660046127d3565b7f150b7a020000000000000000000000000000000000000000000000000000000095945050505050565b6040517fffffffff000000000000000000000000000000000000000000000000000000009091168152602001610312565b34801561039b575f80fd5b506102db6103aa366004612915565b61094b565b3480156103ba575f80fd5b5061035f6103c9366004612915565b610ac5565b3480156103d9575f80fd5b50610308610c68565b3480156103ed575f80fd5b506103086103fc3660046127b8565b60076020525f908152604090205481565b348015610418575f80fd5b50610308610427366004612959565b610c8c565b348015610437575f80fd5b506102db6104463660046129a8565b610cc8565b348015610456575f80fd5b5061030860035481565b34801561046b575f80fd5b5061047f61047a366004612a05565b610ead565b6040516103129190612a25565b348015610497575f80fd5b506104ab6104a63660046127b8565b611004565b6040519015158152602001610312565b6102db6104c9366004612a68565b6110d6565b3480156104d9575f80fd5b506103086104e83660046127b8565b73ffffffffffffffffffffffffffffffffffffffff165f9081526007602052604090205490565b34801561051a575f80fd5b506103086105293660046127b8565b73ffffffffffffffffffffffffffffffffffffffff165f9081526008602052604090205490565b34801561055b575f80fd5b506102db61056a366004612abd565b611159565b34801561057a575f80fd5b506103086105893660046127b8565b60096020525f908152604090205481565b3480156105a5575f80fd5b506103087f000000000000000000000000000000000000000000000000000000000000000081565b3480156105d8575f80fd5b506005546105f99073ffffffffffffffffffffffffffffffffffffffff1681565b60405173ffffffffffffffffffffffffffffffffffffffff9091168152602001610312565b348015610629575f80fd5b50610308610638366004612a68565b611247565b348015610648575f80fd5b5061030860015481565b34801561065d575f80fd5b506102db61066c366004612ad4565b6112fb565b34801561067c575f80fd5b5061030860045481565b348015610691575f80fd5b505f54610308565b3480156106a4575f80fd5b50730576a174d229e3cfa37253523e645a78a0c91b576105f9565b6103086106cd366004612ad4565b611377565b3480156106dd575f80fd5b5061035f6106ec366004612b4f565b7fbc197c810000000000000000000000000000000000000000000000000000000098975050505050505050565b348015610724575f80fd5b5061030860025481565b348015610739575f80fd5b5061074d610748366004612be5565b611432565b6040516103129190612ca3565b348015610765575f80fd5b506103086107743660046127b8565b600c6020525f908152604090205481565b348015610790575f80fd5b506105f961079f366004612abd565b600b6020525f908152604090205473ffffffffffffffffffffffffffffffffffffffff1681565b3480156107d1575f80fd5b506107e56107e0366004612abd565b61151c565b6040516103129190612ce2565b3480156107fd575f80fd5b506102db61080c366004612abd565b6115f1565b34801561081c575f80fd5b5061030861171d565b348015610830575f80fd5b5061035f61083f366004612d21565b7ff23a6e61000000000000000000000000000000000000000000000000000000009695505050505050565b348015610875575f80fd5b506103087f8b73c3c69bb8fe3d512ecc4cf759cc79239f7b179b0ffacaa9a75d522b39400f81565b3480156108a8575f80fd5b506103086108b7366004612a05565b611777565b3480156108c7575f80fd5b506103087f000000000000000000000000000000000000000000000000000000000000000081565b3480156108fa575f80fd5b506105f9611799565b34801561090e575f80fd5b5061074d6040518060400160405280600581526020017f312e312e3000000000000000000000000000000000000000000000000000000081525081565b61095433611004565b80610972575033730576a174d229e3cfa37253523e645a78a0c91b57145b610a03576040517f08c379a000000000000000000000000000000000000000000000000000000000815260206004820152603e60248201527f4f6e6c792063616c6c61626c6520627920746865206d656368206f706572617460448201527f6f72206f722074686520656e74727920706f696e7420636f6e7472616374000060648201526084015b60405180910390fd5b60016006541115610a40576040517f8beb9d1600000000000000000000000000000000000000000000000000000000815260040160405180910390fd5b600260065560055473ffffffffffffffffffffffffffffffffffffffff1615610ab1576005546040517f4b6c692700000000000000000000000000000000000000000000000000000000815273ffffffffffffffffffffffffffffffffffffffff90911660048201526024016109fa565b610abb82826117b6565b5050600160065550565b5f805f80610ae585602081015160408201516060909201515f1a92909190565b9094509250905060ff81165f03610bfb5782858301602001610b0682611004565b158015610b29575073ffffffffffffffffffffffffffffffffffffffff82163014155b15610b5c57507fffffffff000000000000000000000000000000000000000000000000000000009450610c629350505050565b6040517f1626ba7e00000000000000000000000000000000000000000000000000000000815273ffffffffffffffffffffffffffffffffffffffff831690631626ba7e90610bb0908b908590600401612d98565b602060405180830381865afa158015610bcb573d5f803e3d5ffd5b505050506040513d601f19601f82011682018060405250810190610bef9190612db0565b95505050505050610c62565b610c0a6104a68783868661199b565b15610c3b57507f1626ba7e000000000000000000000000000000000000000000000000000000009250610c62915050565b507fffffffff00000000000000000000000000000000000000000000000000000000925050505b92915050565b5f80610c726119b7565b806020019051810190610c859190612def565b9392505050565b5f610c95611a86565b610c9f8484611b05565b9050610cae6040850185612e1b565b90505f03610cbf57610cbf84611bd9565b610c8582611c57565b610cd133611004565b80610cef575033730576a174d229e3cfa37253523e645a78a0c91b57145b610d7b576040517f08c379a000000000000000000000000000000000000000000000000000000000815260206004820152603e60248201527f4f6e6c792063616c6c61626c6520627920746865206d656368206f706572617460448201527f6f72206f722074686520656e74727920706f696e7420636f6e7472616374000060648201526084016109fa565b60016006541115610db8576040517f8beb9d1600000000000000000000000000000000000000000000000000000000815260040160405180910390fd5b600260065560055473ffffffffffffffffffffffffffffffffffffffff16610e0c576040517fd92e233d00000000000000000000000000000000000000000000000000000000815260040160405180910390fd5b5f610e1785856117b6565b6005546040517f56d0819e00000000000000000000000000000000000000000000000000000000815291925073ffffffffffffffffffffffffffffffffffffffff16906356d0819e90610e74908890859088908890600401612e7c565b5f604051808303815f87803b158015610e8b575f80fd5b505af1158015610e9d573d5f803e3d5ffd5b5050600160065550505050505050565b6002546060905f849003610ebf578093505b80610eca8486612eea565b1115610f1757610eda8385612eea565b6040517f7ae596850000000000000000000000000000000000000000000000000000000081526004810191909152602481018290526044016109fa565b8315610ffd578367ffffffffffffffff811115610f3657610f36612841565b604051908082528060200260200182016040528015610f5f578160200160208202803683370190505b505f808052600a6020527f13da86008ba1c6922daee3e07db95305ef49ebced9f5467a0b8613fcc6b343e4549193505b84811015610fb2575f828152600a60205260409020600101549150600101610f8f565b505f5b85811015610ffa5781848281518110610fd057610fd0612efd565b6020908102919091018101919091525f838152600a90915260409020600101549150600101610fb5565b50505b5092915050565b5f805f61100f6119b7565b8060200190518101906110229190612def565b915091508373ffffffffffffffffffffffffffffffffffffffff168273ffffffffffffffffffffffffffffffffffffffff16636352211e836040518263ffffffff1660e01b815260040161107891815260200190565b602060405180830381865afa158015611093573d5f803e3d5ffd5b505050506040513d601f19601f820116820180604052508101906110b79190612f2a565b73ffffffffffffffffffffffffffffffffffffffff1614949350505050565b60055473ffffffffffffffffffffffffffffffffffffffff163314611149576005546040517fe56895c000000000000000000000000000000000000000000000000000000000815233600482015273ffffffffffffffffffffffffffffffffffffffff90911660248201526044016109fa565b611154838383611ccb565b505050565b61116233611004565b80611180575033730576a174d229e3cfa37253523e645a78a0c91b57145b61120c576040517f08c379a000000000000000000000000000000000000000000000000000000000815260206004820152603e60248201527f4f6e6c792063616c6c61626c6520627920746865206d656368206f706572617460448201527f6f72206f722074686520656e74727920706f696e7420636f6e7472616374000060648201526084016109fa565b60018190556040518181527f66cbca4f3c64fecf1dcb9ce094abcf7f68c3450a1d4e3a8e917dd621edb4ebe09060200160405180910390a150565b5f61125061171d565b84848460405160200161126593929190612f45565b604051602081830303815290604052805190602001206040516020016112bd9291907f190100000000000000000000000000000000000000000000000000000000000081526002810192909252602282015260420190565b604080517fffffffffffffffffffffffffffffffffffffffffffffffffffffffffffffffe08184030181529190528051602090910120949350505050565b6113036119b7565b511561136b576040517f08c379a000000000000000000000000000000000000000000000000000000000815260206004820152601360248201527f416c726561647920696e697469616c697a65640000000000000000000000000060448201526064016109fa565b61137481611e73565b50565b6005545f9073ffffffffffffffffffffffffffffffffffffffff16156113e5576005546040517f4b6c692700000000000000000000000000000000000000000000000000000000815273ffffffffffffffffffffffffffffffffffffffff90911660048201526024016109fa565b335f818152600c602052604090205461140091908490611247565b335f908152600c6020526040812080549293509061141d83612f83565b919050555061142d338383611ccb565b919050565b606061143d33611004565b8061145b575033730576a174d229e3cfa37253523e645a78a0c91b57145b6114e7576040517f08c379a000000000000000000000000000000000000000000000000000000000815260206004820152603e60248201527f4f6e6c792063616c6c61626c6520627920746865206d656368206f706572617460448201527f6f72206f722074686520656e74727920706f696e7420636f6e7472616374000060648201526084016109fa565b5f6115018787878787156114fb5787611fe3565b5a611fe3565b925090508061151257815160208301fd5b5095945050505050565b5f818152600b602052604081205473ffffffffffffffffffffffffffffffffffffffff161561142d575f828152600a60205260408082208151808301928390529160029082845b8154815260200190600101908083116115635750505050509050805f6002811061158f5761158f612efd565b60200201511580156115a357506020810151155b80156115d857505f8052600a6020527f13da86008ba1c6922daee3e07db95305ef49ebced9f5467a0b8613fcc6b343e3548314155b156115e657600291506115eb565b600191505b50919050565b60055473ffffffffffffffffffffffffffffffffffffffff163314611664576005546040517fe56895c000000000000000000000000000000000000000000000000000000000815233600482015273ffffffffffffffffffffffffffffffffffffffff90911660248201526044016109fa565b5f818152600b602052604090205473ffffffffffffffffffffffffffffffffffffffff16806116bf576040517fd92e233d00000000000000000000000000000000000000000000000000000000815260040160405180910390fd5b6116c981836120e6565b8073ffffffffffffffffffffffffffffffffffffffff167fa36a540c5fea3a5e69d4b1c2247b28a93fd183ef1314af26a8db7b3ae080bcd08360405161171191815260200190565b60405180910390a25050565b5f7f000000000000000000000000000000000000000000000000000000000000000046146117525761174d612239565b905090565b507f000000000000000000000000000000000000000000000000000000000000000090565b600a602052815f5260405f208160028110611790575f80fd5b01549150829050565b5f806117a36119b7565b806020019051810190610c629190612f2a565b5f828152600b602052604090205460609073ffffffffffffffffffffffffffffffffffffffff16806118ee5760055473ffffffffffffffffffffffffffffffffffffffff1615611899576005546040517ff2e433bf0000000000000000000000000000000000000000000000000000000081526004810186905273ffffffffffffffffffffffffffffffffffffffff9091169063f2e433bf906024016080604051808303815f875af115801561186e573d5f803e3d5ffd5b505050506040513d601f19601f820116820180604052508101906118929190612fba565b6040015190505b73ffffffffffffffffffffffffffffffffffffffff81166118e9576040517ffe239804000000000000000000000000000000000000000000000000000000008152600481018590526024016109fa565b6118f8565b6118f881856120e6565b73ffffffffffffffffffffffffffffffffffffffff81165f90815260086020526040812080548594509161192b83612f83565b909155505060048054905f61193f83612f83565b91905055503373ffffffffffffffffffffffffffffffffffffffff167f0cd979445339c62199996f208428d987b1cea24d18e62b79ec24d94b636e8b70858460405161198c929190612d98565b60405180910390a25092915050565b5f805f6119aa87878787612337565b915091506115128161241f565b606061174d611a816040517fd60000000000000000000000000000000000000000000000000000000000000060208201527f940000000000000000000000000000000000000000000000000000000000000060218201527fffffffffffffffffffffffffffffffffffffffff0000000000000000000000003060601b1660228201527f010000000000000000000000000000000000000000000000000000000000000060368201525f90603701604051602081830303815290604052805190602001205f1c905090565b6125d1565b33730576a174d229e3cfa37253523e645a78a0c91b5714611b03576040517f08c379a000000000000000000000000000000000000000000000000000000000815260206004820152601c60248201527f6163636f756e743a206e6f742066726f6d20456e747279506f696e740000000060448201526064016109fa565b565b7f19457468657265756d205369676e6564204d6573736167653a0a3332000000005f908152601c829052603c81207f1626ba7e00000000000000000000000000000000000000000000000000000000611b9f82611b66610140880188612e1b565b8080601f0160208091040260200160405190810160405280939291908181526020018383808284375f92019190915250610ac592505050565b7fffffffff000000000000000000000000000000000000000000000000000000001614611bd0576001915050610c62565b505f9392505050565b5f805460208301359180611bec83612f83565b9190505514611374576040517f08c379a000000000000000000000000000000000000000000000000000000000815260206004820152600d60248201527f496e76616c6964206e6f6e63650000000000000000000000000000000000000060448201526064016109fa565b8015611374576040515f9033907fffffffffffffffffffffffffffffffffffffffffffffffffffffffffffffffff90849084818181858888f193505050503d805f8114611cbf576040519150601f19603f3d011682016040523d82523d5f602084013e611cc4565b606091505b5050505050565b611cd6348284612626565b73ffffffffffffffffffffffffffffffffffffffff83165f908152600760205260408120805491611d0683612f83565b909155505073ffffffffffffffffffffffffffffffffffffffff83165f908152600960205260408120805491611d3b83612f83565b90915550505f818152600b6020908152604080832080547fffffffffffffffffffffffff00000000000000000000000000000000000000001673ffffffffffffffffffffffffffffffffffffffff8816179055600a9091528082207f13da86008ba1c6922daee3e07db95305ef49ebced9f5467a0b8613fcc6b343e480546001830181905590859055808452918320849055600280547f13da86008ba1c6922daee3e07db95305ef49ebced9f5467a0b8613fcc6b343e394929392909190611e0283612f83565b909155505060038054905f611e1683612f83565b91905055508573ffffffffffffffffffffffffffffffffffffffff167f4bda649efe6b98b0f9c1d5e859c29e20910f45c66dabfe6fad4a4881f7faf9cc8587604051611e63929190612d98565b60405180910390a2505050505050565b5f611e7d82612670565b90505f8151602083015ff09050611f4f6040517fd60000000000000000000000000000000000000000000000000000000000000060208201527f940000000000000000000000000000000000000000000000000000000000000060218201527fffffffffffffffffffffffffffffffffffffffff0000000000000000000000003060601b1660228201527f010000000000000000000000000000000000000000000000000000000000000060368201525f90603701604051602081830303815290604052805190602001205f1c905090565b73ffffffffffffffffffffffffffffffffffffffff168173ffffffffffffffffffffffffffffffffffffffff1614611154576040517f08c379a000000000000000000000000000000000000000000000000000000000815260206004820152600c60248201527f5772697465206661696c6564000000000000000000000000000000000000000060448201526064016109fa565b5f60606001846001811115611ffa57611ffa612cb5565b0361206e578673ffffffffffffffffffffffffffffffffffffffff168386604051612025919061305c565b5f604051808303818686f4925050503d805f811461205e576040519150601f19603f3d011682016040523d82523d5f602084013e612063565b606091505b5090925090506120dc565b8673ffffffffffffffffffffffffffffffffffffffff16838787604051612095919061305c565b5f60405180830381858888f193505050503d805f81146120d0576040519150601f19603f3d011682016040523d82523d5f602084013e6120d5565b606091505b5090925090505b9550959350505050565b73ffffffffffffffffffffffffffffffffffffffff82165f90815260096020526040812080549161211683613067565b909155505060028054905f61212a83613067565b90915550505f818152600a60205260408082208151808301928390529160029082845b81548152602001906001019080831161214d5750505050509050805f6002811061217957612179612efd565b602002015115801561218d57506020810151155b80156121c257505f8052600a6020527f13da86008ba1c6922daee3e07db95305ef49ebced9f5467a0b8613fcc6b343e3548214155b156121fc576040517ffe239804000000000000000000000000000000000000000000000000000000008152600481018390526024016109fa565b6020818101805183515f908152600a9093526040808420600190810192909255935191518352838320919091559281529081208181559091015550565b5f7f8b73c3c69bb8fe3d512ecc4cf759cc79239f7b179b0ffacaa9a75d522b39400f7f493aeac1d921aa02a044029e7fe4be43b1a4e80b40706fa5819e8fbb0d0935256040518060400160405280600581526020017f312e312e300000000000000000000000000000000000000000000000000000008152506040516020016122c29190612ca3565b604080517fffffffffffffffffffffffffffffffffffffffffffffffffffffffffffffffe081840301815282825280516020918201209083019490945281019190915260608101919091524660808201523060a082015260c00160405160208183030381529060405280519060200120905090565b5f807f7fffffffffffffffffffffffffffffff5d576e7357a4501ddfe92f46681b20a083111561236c57505f90506003612416565b604080515f8082526020820180845289905260ff881692820192909252606081018690526080810185905260019060a0016020604051602081039080840390855afa1580156123bd573d5f803e3d5ffd5b50506040517fffffffffffffffffffffffffffffffffffffffffffffffffffffffffffffffe0015191505073ffffffffffffffffffffffffffffffffffffffff8116612410575f60019250925050612416565b91505f90505b94509492505050565b5f81600481111561243257612432612cb5565b0361243a5750565b600181600481111561244e5761244e612cb5565b036124b5576040517f08c379a000000000000000000000000000000000000000000000000000000000815260206004820152601860248201527f45434453413a20696e76616c6964207369676e6174757265000000000000000060448201526064016109fa565b60028160048111156124c9576124c9612cb5565b03612530576040517f08c379a000000000000000000000000000000000000000000000000000000000815260206004820152601f60248201527f45434453413a20696e76616c6964207369676e6174757265206c656e6774680060448201526064016109fa565b600381600481111561254457612544612cb5565b03611374576040517f08c379a000000000000000000000000000000000000000000000000000000000815260206004820152602260248201527f45434453413a20696e76616c6964207369676e6174757265202773272076616c60448201527f756500000000000000000000000000000000000000000000000000000000000060648201526084016109fa565b6060813b600181116125f257505060408051602081019091525f8152919050565b806125fc81613067565b9150506040519150601f19601f602083010116820160405280825280600160208401853c50919050565b600154831015611154576001546040517fb48978280000000000000000000000000000000000000000000000000000000081526109fa918591600401918252602082015260400190565b6060815160016126809190612eea565b8260405160200161269292919061309b565b6040516020818303038152906040529050919050565b73ffffffffffffffffffffffffffffffffffffffff81168114611374575f80fd5b5f8083601f8401126126d9575f80fd5b50813567ffffffffffffffff8111156126f0575f80fd5b602083019150836020828501011115612707575f80fd5b9250929050565b5f805f805f805f8060c0898b031215612725575f80fd5b8835612730816126a8565b97506020890135612740816126a8565b96506040890135612750816126a8565b955060608901359450608089013567ffffffffffffffff80821115612773575f80fd5b61277f8c838d016126c9565b909650945060a08b0135915080821115612797575f80fd5b506127a48b828c016126c9565b999c989b5096995094979396929594505050565b5f602082840312156127c8575f80fd5b8135610c85816126a8565b5f805f805f608086880312156127e7575f80fd5b85356127f2816126a8565b94506020860135612802816126a8565b935060408601359250606086013567ffffffffffffffff811115612824575f80fd5b612830888289016126c9565b969995985093965092949392505050565b7f4e487b71000000000000000000000000000000000000000000000000000000005f52604160045260245ffd5b5f82601f83011261287d575f80fd5b813567ffffffffffffffff8082111561289857612898612841565b604051601f83017fffffffffffffffffffffffffffffffffffffffffffffffffffffffffffffffe0908116603f011681019082821181831017156128de576128de612841565b816040528381528660208588010111156128f6575f80fd5b836020870160208301375f602085830101528094505050505092915050565b5f8060408385031215612926575f80fd5b82359150602083013567ffffffffffffffff811115612943575f80fd5b61294f8582860161286e565b9150509250929050565b5f805f6060848603121561296b575f80fd5b833567ffffffffffffffff811115612981575f80fd5b84016101608187031215612993575f80fd5b95602085013595506040909401359392505050565b5f805f80608085870312156129bb575f80fd5b84359350602085013567ffffffffffffffff8111156129d8575f80fd5b6129e48782880161286e565b93505060408501356129f5816126a8565b9396929550929360600135925050565b5f8060408385031215612a16575f80fd5b50508035926020909101359150565b602080825282518282018190525f9190848201906040850190845b81811015612a5c57835183529284019291840191600101612a40565b50909695505050505050565b5f805f60608486031215612a7a575f80fd5b8335612a85816126a8565b9250602084013567ffffffffffffffff811115612aa0575f80fd5b612aac8682870161286e565b925050604084013590509250925092565b5f60208284031215612acd575f80fd5b5035919050565b5f60208284031215612ae4575f80fd5b813567ffffffffffffffff811115612afa575f80fd5b612b068482850161286e565b949350505050565b5f8083601f840112612b1e575f80fd5b50813567ffffffffffffffff811115612b35575f80fd5b6020830191508360208260051b8501011115612707575f80fd5b5f805f805f805f8060a0898b031215612b66575f80fd5b8835612b71816126a8565b97506020890135612b81816126a8565b9650604089013567ffffffffffffffff80821115612b9d575f80fd5b612ba98c838d01612b0e565b909850965060608b0135915080821115612bc1575f80fd5b612bcd8c838d01612b0e565b909650945060808b0135915080821115612797575f80fd5b5f805f805f60a08688031215612bf9575f80fd5b8535612c04816126a8565b945060208601359350604086013567ffffffffffffffff811115612c26575f80fd5b612c328882890161286e565b935050606086013560028110612c46575f80fd5b949793965091946080013592915050565b5f81518084528060208401602086015e5f6020828601015260207fffffffffffffffffffffffffffffffffffffffffffffffffffffffffffffffe0601f83011685010191505092915050565b602081525f610c856020830184612c57565b7f4e487b71000000000000000000000000000000000000000000000000000000005f52602160045260245ffd5b6020810160038310612d1b577f4e487b71000000000000000000000000000000000000000000000000000000005f52602160045260245ffd5b91905290565b5f805f805f8060a08789031215612d36575f80fd5b8635612d41816126a8565b95506020870135612d51816126a8565b94506040870135935060608701359250608087013567ffffffffffffffff811115612d7a575f80fd5b612d8689828a016126c9565b979a9699509497509295939492505050565b828152604060208201525f612b066040830184612c57565b5f60208284031215612dc0575f80fd5b81517fffffffff0000000000000000000000000000000000000000000000000000000081168114610c85575f80fd5b5f8060408385031215612e00575f80fd5b8251612e0b816126a8565b6020939093015192949293505050565b5f8083357fffffffffffffffffffffffffffffffffffffffffffffffffffffffffffffffe1843603018112612e4e575f80fd5b83018035915067ffffffffffffffff821115612e68575f80fd5b602001915036819003821315612707575f80fd5b848152608060208201525f612e946080830186612c57565b73ffffffffffffffffffffffffffffffffffffffff949094166040830152506060015292915050565b7f4e487b71000000000000000000000000000000000000000000000000000000005f52601160045260245ffd5b80820180821115610c6257610c62612ebd565b7f4e487b71000000000000000000000000000000000000000000000000000000005f52603260045260245ffd5b5f60208284031215612f3a575f80fd5b8151610c85816126a8565b73ffffffffffffffffffffffffffffffffffffffff84168152606060208201525f612f736060830185612c57565b9050826040830152949350505050565b5f7fffffffffffffffffffffffffffffffffffffffffffffffffffffffffffffffff8203612fb357612fb3612ebd565b5060010190565b5f60808284031215612fca575f80fd5b6040516080810181811067ffffffffffffffff82111715612fed57612fed612841565b6040528251612ffb816126a8565b8152602083015161300b816126a8565b6020820152604083015161301e816126a8565b6040820152606083015163ffffffff81168114613039575f80fd5b60608201529392505050565b5f81518060208401855e5f93019283525090919050565b5f610c858284613045565b5f8161307557613075612ebd565b507fffffffffffffffffffffffffffffffffffffffffffffffffffffffffffffffff0190565b7f630000000000000000000000000000000000000000000000000000000000000081527fffffffff000000000000000000000000000000000000000000000000000000008360e01b1660018201527f80600e6000396000f3000000000000000000000000000000000000000000000060058201525f600e8201525f612b06600f83018461304556fea26469706673582212201cd08849c6bb0bbad9e5b60bc3fd20a33581b199675f820e1d9898d2263963c164736f6c63430008190033",
  "linkReferences": {},
  "deployedLinkReferences": {}
}