{
  "_format": "hh-sol-artifact-1",
  "contractName": "MechMarketplace",
  "sourceName": "contracts/MechMarketplace.sol",
  "abi": [
    {
      "inputs": [
        {
          "internalType": "address",
          "name": "_serviceRegistry",
          "type": "address"
        },
        {
          "internalType": "address",
          "name": "_karma",
          "type": "address"
        }
      ],
      "stateMutability": "nonpayable",
      "type": "constructor"
    },
    {
      "inputs": [],
      "name": "AlreadyInitialized",
      "type": "error"
    },
    {
      "inputs": [
        {
          "internalType": "bytes32",
          "name": "requestId",
          "type": "bytes32"
        }
      ],
      "name": "AlreadyRequested",
      "type": "error"
    },
    {
      "inputs": [
        {
          "internalType": "bytes",
          "name": "signature",
          "type": "bytes"
        },
        {
          "internalType": "uint256",
          "name": "provided",
          "type": "uint256"
        },
        {
          "internalType": "uint256",
          "name": "expected",
          "type": "uint256"
        }
      ],
      "name": "IncorrectSignatureLength",
      "type": "error"
    },
    {
      "inputs": [
        {
          "internalType": "uint256",
          "name": "current",
          "type": "uint256"
        },
        {
          "internalType": "uint256",
          "name": "required",
          "type": "uint256"
        }
      ],
      "name": "InsufficientBalance",
      "type": "error"
    },
    {
      "inputs": [
        {
          "internalType": "uint256",
          "name": "amount",
          "type": "uint256"
        }
      ],
      "name": "NoDepositAllowed",
      "type": "error"
    },
    {
      "inputs": [
        {
          "internalType": "uint256",
          "name": "provided",
          "type": "uint256"
        },
        {
          "internalType": "uint256",
          "name": "min",
          "type": "uint256"
        },
        {
          "internalType": "uint256",
          "name": "max",
          "type": "uint256"
        }
      ],
      "name": "OutOfBounds",
      "type": "error"
    },
    {
      "inputs": [
        {
          "internalType": "uint256",
          "name": "provided",
          "type": "uint256"
        },
        {
          "internalType": "uint256",
          "name": "max",
          "type": "uint256"
        }
      ],
      "name": "Overflow",
      "type": "error"
    },
    {
      "inputs": [
        {
          "internalType": "address",
          "name": "sender",
          "type": "address"
        },
        {
          "internalType": "address",
          "name": "owner",
          "type": "address"
        }
      ],
      "name": "OwnerOnly",
      "type": "error"
    },
    {
      "inputs": [],
      "name": "ReentrancyGuard",
      "type": "error"
    },
    {
      "inputs": [
        {
          "internalType": "address",
          "name": "requester",
          "type": "address"
        },
        {
          "internalType": "bytes32",
          "name": "msgHash",
          "type": "bytes32"
        },
        {
          "internalType": "bytes",
          "name": "signature",
          "type": "bytes"
        }
      ],
      "name": "SignatureNotValidated",
      "type": "error"
    },
    {
      "inputs": [
        {
          "internalType": "address",
          "name": "token",
          "type": "address"
        },
        {
          "internalType": "address",
          "name": "from",
          "type": "address"
        },
        {
          "internalType": "address",
          "name": "to",
          "type": "address"
        },
        {
          "internalType": "uint256",
          "name": "amount",
          "type": "uint256"
        }
      ],
      "name": "TransferFailed",
      "type": "error"
    },
    {
      "inputs": [
        {
          "internalType": "address",
          "name": "account",
          "type": "address"
        }
      ],
      "name": "UnauthorizedAccount",
      "type": "error"
    },
    {
      "inputs": [
        {
          "internalType": "uint256",
          "name": "numValues1",
          "type": "uint256"
        },
        {
          "internalType": "uint256",
          "name": "numValues2",
          "type": "uint256"
        }
      ],
      "name": "WrongArrayLength",
      "type": "error"
    },
    {
      "inputs": [
        {
          "internalType": "bytes32",
          "name": "paymentType",
          "type": "bytes32"
        }
      ],
      "name": "WrongPaymentType",
      "type": "error"
    },
    {
      "inputs": [
        {
          "internalType": "uint256",
          "name": "state",
          "type": "uint256"
        },
        {
          "internalType": "uint256",
          "name": "serviceId",
          "type": "uint256"
        }
      ],
      "name": "WrongServiceState",
      "type": "error"
    },
    {
      "inputs": [],
      "name": "ZeroAddress",
      "type": "error"
    },
    {
      "inputs": [],
      "name": "ZeroValue",
      "type": "error"
    },
    {
      "anonymous": false,
      "inputs": [
        {
          "indexed": true,
          "internalType": "address",
          "name": "mech",
          "type": "address"
        },
        {
          "indexed": true,
          "internalType": "uint256",
          "name": "serviceId",
          "type": "uint256"
        },
        {
          "indexed": true,
          "internalType": "address",
          "name": "mechFactory",
          "type": "address"
        }
      ],
      "name": "CreateMech",
      "type": "event"
    },
    {
      "anonymous": false,
      "inputs": [
        {
          "indexed": true,
          "internalType": "address",
          "name": "mech",
          "type": "address"
        },
        {
          "indexed": true,
          "internalType": "address",
          "name": "mechServiceMultisig",
          "type": "address"
        },
        {
          "indexed": false,
          "internalType": "bytes32",
          "name": "requestId",
          "type": "bytes32"
        },
        {
          "indexed": false,
          "internalType": "uint256",
          "name": "deliveryRate",
          "type": "uint256"
        },
        {
          "indexed": false,
          "internalType": "bytes",
          "name": "data",
          "type": "bytes"
        }
      ],
      "name": "Deliver",
      "type": "event"
    },
    {
      "anonymous": false,
      "inputs": [
        {
          "indexed": true,
          "internalType": "address",
          "name": "implementation",
          "type": "address"
        }
      ],
      "name": "ImplementationUpdated",
      "type": "event"
    },
    {
      "anonymous": false,
      "inputs": [
        {
          "indexed": true,
          "internalType": "address",
          "name": "deliveryMech",
          "type": "address"
        },
        {
          "indexed": true,
          "internalType": "address[]",
          "name": "requesters",
          "type": "address[]"
        },
        {
          "indexed": false,
          "internalType": "uint256",
          "name": "numDeliveries",
          "type": "uint256"
        },
        {
          "indexed": false,
          "internalType": "bytes32[]",
          "name": "requestIds",
          "type": "bytes32[]"
        },
        {
          "indexed": false,
          "internalType": "bool[]",
          "name": "deliveredRequests",
          "type": "bool[]"
        }
      ],
      "name": "MarketplaceDelivery",
      "type": "event"
    },
    {
      "anonymous": false,
      "inputs": [
        {
          "indexed": true,
          "internalType": "address",
          "name": "deliveryMech",
          "type": "address"
        },
        {
          "indexed": true,
          "internalType": "address",
          "name": "requester",
          "type": "address"
        },
        {
          "indexed": false,
          "internalType": "uint256",
          "name": "numDeliveries",
          "type": "uint256"
        },
        {
          "indexed": false,
          "internalType": "bytes32[]",
          "name": "requestIds",
          "type": "bytes32[]"
        }
      ],
      "name": "MarketplaceDeliveryWithSignatures",
      "type": "event"
    },
    {
      "anonymous": false,
      "inputs": [
        {
          "indexed": false,
          "internalType": "uint256",
          "name": "fee",
          "type": "uint256"
        },
        {
          "indexed": false,
          "internalType": "uint256",
          "name": "minResponseTimeout",
          "type": "uint256"
        },
        {
          "indexed": false,
          "internalType": "uint256",
          "name": "maxResponseTimeout",
          "type": "uint256"
        }
      ],
      "name": "MarketplaceParamsUpdated",
      "type": "event"
    },
    {
      "anonymous": false,
      "inputs": [
        {
          "indexed": true,
          "internalType": "address",
          "name": "priorityMech",
          "type": "address"
        },
        {
          "indexed": true,
          "internalType": "address",
          "name": "requester",
          "type": "address"
        },
        {
          "indexed": false,
          "internalType": "uint256",
          "name": "numRequests",
          "type": "uint256"
        },
        {
          "indexed": false,
          "internalType": "bytes32[]",
          "name": "requestIds",
          "type": "bytes32[]"
        }
      ],
      "name": "MarketplaceRequest",
      "type": "event"
    },
    {
      "anonymous": false,
      "inputs": [
        {
          "indexed": true,
          "internalType": "address",
          "name": "owner",
          "type": "address"
        }
      ],
      "name": "OwnerUpdated",
      "type": "event"
    },
    {
      "anonymous": false,
      "inputs": [
        {
          "indexed": false,
          "internalType": "address[]",
          "name": "mechFactories",
          "type": "address[]"
        },
        {
          "indexed": false,
          "internalType": "bool[]",
          "name": "statuses",
          "type": "bool[]"
        }
      ],
      "name": "SetMechFactoryStatuses",
      "type": "event"
    },
    {
      "anonymous": false,
      "inputs": [
        {
          "indexed": false,
          "internalType": "bytes32[]",
          "name": "paymentTypes",
          "type": "bytes32[]"
        },
        {
          "indexed": false,
          "internalType": "address[]",
          "name": "balanceTrackers",
          "type": "address[]"
        }
      ],
      "name": "SetPaymentTypeBalanceTrackers",
      "type": "event"
    },
    {
      "inputs": [],
      "name": "DOMAIN_SEPARATOR_TYPE_HASH",
      "outputs": [
        {
          "internalType": "bytes32",
          "name": "",
          "type": "bytes32"
        }
      ],
      "stateMutability": "view",
      "type": "function"
    },
    {
      "inputs": [],
      "name": "MAX_FEE_FACTOR",
      "outputs": [
        {
          "internalType": "uint256",
          "name": "",
          "type": "uint256"
        }
      ],
      "stateMutability": "view",
      "type": "function"
    },
    {
      "inputs": [],
      "name": "MECH_MARKETPLACE_PROXY",
      "outputs": [
        {
          "internalType": "bytes32",
          "name": "",
          "type": "bytes32"
        }
      ],
      "stateMutability": "view",
      "type": "function"
    },
    {
      "inputs": [],
      "name": "VERSION",
      "outputs": [
        {
          "internalType": "string",
          "name": "",
          "type": "string"
        }
      ],
      "stateMutability": "view",
      "type": "function"
    },
    {
      "inputs": [],
      "name": "chainId",
      "outputs": [
        {
          "internalType": "uint256",
          "name": "",
          "type": "uint256"
        }
      ],
      "stateMutability": "view",
      "type": "function"
    },
    {
      "inputs": [
        {
          "internalType": "address",
          "name": "newImplementation",
          "type": "address"
        }
      ],
      "name": "changeImplementation",
      "outputs": [],
      "stateMutability": "nonpayable",
      "type": "function"
    },
    {
      "inputs": [
        {
          "internalType": "uint256",
          "name": "newFee",
          "type": "uint256"
        },
        {
          "internalType": "uint256",
          "name": "newMinResponseTimeout",
          "type": "uint256"
        },
        {
          "internalType": "uint256",
          "name": "newMaxResponseTimeout",
          "type": "uint256"
        }
      ],
      "name": "changeMarketplaceParams",
      "outputs": [],
      "stateMutability": "nonpayable",
      "type": "function"
    },
    {
      "inputs": [
        {
          "internalType": "address",
          "name": "newOwner",
          "type": "address"
        }
      ],
      "name": "changeOwner",
      "outputs": [],
      "stateMutability": "nonpayable",
      "type": "function"
    },
    {
      "inputs": [
        {
          "internalType": "address",
          "name": "mech",
          "type": "address"
        }
      ],
      "name": "checkMech",
      "outputs": [
        {
          "internalType": "address",
          "name": "multisig",
          "type": "address"
        }
      ],
      "stateMutability": "view",
      "type": "function"
    },
    {
      "inputs": [
        {
          "internalType": "uint256",
          "name": "serviceId",
          "type": "uint256"
        },
        {
          "internalType": "address",
          "name": "mechFactory",
          "type": "address"
        },
        {
          "internalType": "bytes",
          "name": "payload",
          "type": "bytes"
        }
      ],
      "name": "create",
      "outputs": [
        {
          "internalType": "address",
          "name": "mech",
          "type": "address"
        }
      ],
      "stateMutability": "nonpayable",
      "type": "function"
    },
    {
      "inputs": [
        {
          "internalType": "bytes32[]",
          "name": "requestIds",
          "type": "bytes32[]"
        },
        {
          "internalType": "uint256[]",
          "name": "deliveryRates",
          "type": "uint256[]"
        }
      ],
      "name": "deliverMarketplace",
      "outputs": [
        {
          "internalType": "bool[]",
          "name": "deliveredRequests",
          "type": "bool[]"
        }
      ],
      "stateMutability": "nonpayable",
      "type": "function"
    },
    {
      "inputs": [
        {
          "internalType": "address",
          "name": "requester",
          "type": "address"
        },
        {
          "components": [
            {
              "internalType": "bytes",
              "name": "requestData",
              "type": "bytes"
            },
            {
              "internalType": "bytes",
              "name": "signature",
              "type": "bytes"
            },
            {
              "internalType": "bytes",
              "name": "deliveryData",
              "type": "bytes"
            }
          ],
          "internalType": "struct DeliverWithSignature[]",
          "name": "deliverWithSignatures",
          "type": "tuple[]"
        },
        {
          "internalType": "uint256[]",
          "name": "deliveryRates",
          "type": "uint256[]"
        },
        {
          "internalType": "bytes",
          "name": "paymentData",
          "type": "bytes"
        }
      ],
      "name": "deliverMarketplaceWithSignatures",
      "outputs": [],
      "stateMutability": "nonpayable",
      "type": "function"
    },
    {
      "inputs": [],
      "name": "domainSeparator",
      "outputs": [
        {
          "internalType": "bytes32",
          "name": "",
          "type": "bytes32"
        }
      ],
      "stateMutability": "view",
      "type": "function"
    },
    {
      "inputs": [],
      "name": "fee",
      "outputs": [
        {
          "internalType": "uint256",
          "name": "",
          "type": "uint256"
        }
      ],
      "stateMutability": "view",
      "type": "function"
    },
    {
      "inputs": [],
      "name": "getDomainSeparator",
      "outputs": [
        {
          "internalType": "bytes32",
          "name": "",
          "type": "bytes32"
        }
      ],
      "stateMutability": "view",
      "type": "function"
    },
    {
      "inputs": [
        {
          "internalType": "address",
          "name": "mech",
          "type": "address"
        },
        {
          "internalType": "address",
          "name": "requester",
          "type": "address"
        },
        {
          "internalType": "bytes",
          "name": "data",
          "type": "bytes"
        },
        {
          "internalType": "uint256",
          "name": "deliveryRate",
          "type": "uint256"
        },
        {
          "internalType": "bytes32",
          "name": "paymentType",
          "type": "bytes32"
        },
        {
          "internalType": "uint256",
          "name": "nonce",
          "type": "uint256"
        }
      ],
      "name": "getRequestId",
      "outputs": [
        {
          "internalType": "bytes32",
          "name": "requestId",
          "type": "bytes32"
        }
      ],
      "stateMutability": "view",
      "type": "function"
    },
    {
      "inputs": [
        {
          "internalType": "bytes32",
          "name": "requestId",
          "type": "bytes32"
        }
      ],
      "name": "getRequestStatus",
      "outputs": [
        {
          "internalType": "enum MechMarketplace.RequestStatus",
          "name": "status",
          "type": "uint8"
        }
      ],
      "stateMutability": "view",
      "type": "function"
    },
    {
      "inputs": [
        {
          "internalType": "uint256",
          "name": "_fee",
          "type": "uint256"
        },
        {
          "internalType": "uint256",
          "name": "_minResponseTimeout",
          "type": "uint256"
        },
        {
          "internalType": "uint256",
          "name": "_maxResponseTimeout",
          "type": "uint256"
        }
      ],
      "name": "initialize",
      "outputs": [],
      "stateMutability": "nonpayable",
      "type": "function"
    },
    {
      "inputs": [],
      "name": "karma",
      "outputs": [
        {
          "internalType": "address",
          "name": "",
          "type": "address"
        }
      ],
      "stateMutability": "view",
      "type": "function"
    },
    {
      "inputs": [
        {
          "internalType": "address",
          "name": "",
          "type": "address"
        }
      ],
      "name": "mapAgentMechFactories",
      "outputs": [
        {
          "internalType": "address",
          "name": "",
          "type": "address"
        }
      ],
      "stateMutability": "view",
      "type": "function"
    },
    {
      "inputs": [
        {
          "internalType": "address",
          "name": "",
          "type": "address"
        }
      ],
      "name": "mapDeliveryCounts",
      "outputs": [
        {
          "internalType": "uint256",
          "name": "",
          "type": "uint256"
        }
      ],
      "stateMutability": "view",
      "type": "function"
    },
    {
      "inputs": [
        {
          "internalType": "address",
          "name": "",
          "type": "address"
        }
      ],
      "name": "mapMechDeliveryCounts",
      "outputs": [
        {
          "internalType": "uint256",
          "name": "",
          "type": "uint256"
        }
      ],
      "stateMutability": "view",
      "type": "function"
    },
    {
      "inputs": [
        {
          "internalType": "address",
          "name": "",
          "type": "address"
        }
      ],
      "name": "mapMechFactories",
      "outputs": [
        {
          "internalType": "bool",
          "name": "",
          "type": "bool"
        }
      ],
      "stateMutability": "view",
      "type": "function"
    },
    {
      "inputs": [
        {
          "internalType": "address",
          "name": "",
          "type": "address"
        }
      ],
      "name": "mapMechServiceDeliveryCounts",
      "outputs": [
        {
          "internalType": "uint256",
          "name": "",
          "type": "uint256"
        }
      ],
      "stateMutability": "view",
      "type": "function"
    },
    {
      "inputs": [
        {
          "internalType": "address",
          "name": "",
          "type": "address"
        }
      ],
      "name": "mapNonces",
      "outputs": [
        {
          "internalType": "uint256",
          "name": "",
          "type": "uint256"
        }
      ],
      "stateMutability": "view",
      "type": "function"
    },
    {
      "inputs": [
        {
          "internalType": "bytes32",
          "name": "",
          "type": "bytes32"
        }
      ],
      "name": "mapPaymentTypeBalanceTrackers",
      "outputs": [
        {
          "internalType": "address",
          "name": "",
          "type": "address"
        }
      ],
      "stateMutability": "view",
      "type": "function"
    },
    {
      "inputs": [
        {
          "internalType": "address",
          "name": "",
          "type": "address"
        }
      ],
      "name": "mapRequestCounts",
      "outputs": [
        {
          "internalType": "uint256",
          "name": "",
          "type": "uint256"
        }
      ],
      "stateMutability": "view",
      "type": "function"
    },
    {
      "inputs": [
        {
          "internalType": "bytes32",
          "name": "",
          "type": "bytes32"
        }
      ],
      "name": "mapRequestIdInfos",
      "outputs": [
        {
          "internalType": "address",
          "name": "priorityMech",
          "type": "address"
        },
        {
          "internalType": "address",
          "name": "deliveryMech",
          "type": "address"
        },
        {
          "internalType": "address",
          "name": "requester",
          "type": "address"
        },
        {
          "internalType": "uint256",
          "name": "responseTimeout",
          "type": "uint256"
        },
        {
          "internalType": "uint256",
          "name": "deliveryRate",
          "type": "uint256"
        },
        {
          "internalType": "bytes32",
          "name": "paymentType",
          "type": "bytes32"
        }
      ],
      "stateMutability": "view",
      "type": "function"
    },
    {
      "inputs": [],
      "name": "maxResponseTimeout",
      "outputs": [
        {
          "internalType": "uint256",
          "name": "",
          "type": "uint256"
        }
      ],
      "stateMutability": "view",
      "type": "function"
    },
    {
      "inputs": [],
      "name": "minResponseTimeout",
      "outputs": [
        {
          "internalType": "uint256",
          "name": "",
          "type": "uint256"
        }
      ],
      "stateMutability": "view",
      "type": "function"
    },
    {
      "inputs": [],
      "name": "numMechs",
      "outputs": [
        {
          "internalType": "uint256",
          "name": "",
          "type": "uint256"
        }
      ],
      "stateMutability": "view",
      "type": "function"
    },
    {
      "inputs": [],
      "name": "numTotalRequests",
      "outputs": [
        {
          "internalType": "uint256",
          "name": "",
          "type": "uint256"
        }
      ],
      "stateMutability": "view",
      "type": "function"
    },
    {
      "inputs": [],
      "name": "numUndeliveredRequests",
      "outputs": [
        {
          "internalType": "uint256",
          "name": "",
          "type": "uint256"
        }
      ],
      "stateMutability": "view",
      "type": "function"
    },
    {
      "inputs": [],
      "name": "owner",
      "outputs": [
        {
          "internalType": "address",
          "name": "",
          "type": "address"
        }
      ],
      "stateMutability": "view",
      "type": "function"
    },
    {
      "inputs": [
        {
          "internalType": "bytes",
          "name": "requestData",
          "type": "bytes"
        },
        {
          "internalType": "uint256",
          "name": "maxDeliveryRate",
          "type": "uint256"
        },
        {
          "internalType": "bytes32",
          "name": "paymentType",
          "type": "bytes32"
        },
        {
          "internalType": "address",
          "name": "priorityMech",
          "type": "address"
        },
        {
          "internalType": "uint256",
          "name": "responseTimeout",
          "type": "uint256"
        },
        {
          "internalType": "bytes",
          "name": "paymentData",
          "type": "bytes"
        }
      ],
      "name": "request",
      "outputs": [
        {
          "internalType": "bytes32",
          "name": "requestId",
          "type": "bytes32"
        }
      ],
      "stateMutability": "payable",
      "type": "function"
    },
    {
      "inputs": [
        {
          "internalType": "bytes[]",
          "name": "requestDatas",
          "type": "bytes[]"
        },
        {
          "internalType": "uint256",
          "name": "maxDeliveryRate",
          "type": "uint256"
        },
        {
          "internalType": "bytes32",
          "name": "paymentType",
          "type": "bytes32"
        },
        {
          "internalType": "address",
          "name": "priorityMech",
          "type": "address"
        },
        {
          "internalType": "uint256",
          "name": "responseTimeout",
          "type": "uint256"
        },
        {
          "internalType": "bytes",
          "name": "paymentData",
          "type": "bytes"
        }
      ],
      "name": "requestBatch",
      "outputs": [
        {
          "internalType": "bytes32[]",
          "name": "requestIds",
          "type": "bytes32[]"
        }
      ],
      "stateMutability": "payable",
      "type": "function"
    },
    {
      "inputs": [],
      "name": "serviceRegistry",
      "outputs": [
        {
          "internalType": "address",
          "name": "",
          "type": "address"
        }
      ],
      "stateMutability": "view",
      "type": "function"
    },
    {
      "inputs": [
        {
          "internalType": "address[]",
          "name": "mechFactories",
          "type": "address[]"
        },
        {
          "internalType": "bool[]",
          "name": "statuses",
          "type": "bool[]"
        }
      ],
      "name": "setMechFactoryStatuses",
      "outputs": [],
      "stateMutability": "nonpayable",
      "type": "function"
    },
    {
      "inputs": [
        {
          "internalType": "bytes32[]",
          "name": "paymentTypes",
          "type": "bytes32[]"
        },
        {
          "internalType": "address[]",
          "name": "balanceTrackers",
          "type": "address[]"
        }
      ],
      "name": "setPaymentTypeBalanceTrackers",
      "outputs": [],
      "stateMutability": "nonpayable",
      "type": "function"
    }
  ],
  "bytecode": "0x60e060405234801561000f575f5ffd5b5060405161440a38038061440a83398101604081905261002e9161009f565b6001600160a01b038216158061004b57506001600160a01b038116155b156100695760405163d92e233d60e01b815260040160405180910390fd5b6001600160a01b0391821660c0521660a052466080526100d0565b80516001600160a01b038116811461009a575f5ffd5b919050565b5f5f604083850312156100b0575f5ffd5b6100b983610084565b91506100c760208401610084565b90509250929050565b60805160a05160c0516142df61012b5f395f81816107740152610f1c01525f818161051a0152818161188f01528181611ae00152818161270d0152818161279701526130e301525f818161066b015261208201526142df5ff3fe608060405260043610610290575f3560e01c80638da5cb5b11610165578063d64bf8b0116100c6578063ed24911d1161007c578063f6938b0911610062578063f6938b0914610899578063f698da25146108ac578063ffa1ad74146108c0575f5ffd5b8063ed24911d14610852578063f5dcb7bb14610866575f5ffd5b8063ded81286116100ac578063ded81286146107f5578063e0cb19e81461080a578063e8eca22d1461081f575f5ffd5b8063d64bf8b0146107c1578063ddca3f43146107e0575f5ffd5b8063bdf863171161011b578063c7b6a9f011610101578063c7b6a9f014610743578063cbcf252a14610763578063cbd6407a14610796575f5ffd5b8063bdf86317146106ed578063c69f6f9f14610702575f5ffd5b80639e592bb91161014b5780639e592bb91461068d578063a6f9dae1146106b9578063af4937fc146106d8575f5ffd5b80638da5cb5b1461062e5780639a8a05921461065a575f5ffd5b806345d076641161020f57806357c0762d116101c55780637ecb65f6116101ab5780637ecb65f61461053c57806380d859111461055b5780638342d20e1461057a575f5ffd5b806357c0762d146104ea57806374a8569b14610509575f5ffd5b80634ada3e61116101f55780634ada3e61146104755780634e894dd11461048a5780634eb07dd3146104a9575f5ffd5b806345d076641461042a57806346fbcbb214610456575f5ffd5b8063176b8b01116102645780631bbbeeb81161024a5780631bbbeeb8146103905780632685937b146103bb57806343be9643146103ff575f5ffd5b8063176b8b011461034657806317a68dd814610371575f5ffd5b8062427c5414610294578063087f08d4146102d25780630f41196a146102f35780631399991414610308575b5f5ffd5b34801561029f575f5ffd5b506102bf6102ae3660046135bb565b600a6020525f908152604090205481565b6040519081526020015b60405180910390f35b3480156102dd575f5ffd5b506102f16102ec366004613625565b610915565b005b3480156102fe575f5ffd5b506102bf60025481565b348015610313575f5ffd5b506103366103223660046135bb565b600e6020525f908152604090205460ff1681565b60405190151581526020016102c9565b348015610351575f5ffd5b506102bf6103603660046135bb565b600b6020525f908152604090205481565b34801561037c575f5ffd5b506102f161038b3660046135bb565b610b3e565b34801561039b575f5ffd5b506102bf6103aa3660046135bb565b60096020525f908152604090205481565b3480156103c6575f5ffd5b506103da6103d53660046135bb565b610c65565b60405173ffffffffffffffffffffffffffffffffffffffff90911681526020016102c9565b34801561040a575f5ffd5b506102bf6104193660046135bb565b600c6020525f908152604090205481565b348015610435575f5ffd5b50610449610444366004613691565b610d9b565b6040516102c991906136a8565b348015610461575f5ffd5b506103da6104703660046137ed565b610e5c565b348015610480575f5ffd5b506102bf60055481565b348015610495575f5ffd5b506102f16104a4366004613880565b61109f565b3480156104b4575f5ffd5b506103da6104c3366004613691565b60106020525f908152604090205473ffffffffffffffffffffffffffffffffffffffff1681565b3480156104f5575f5ffd5b506102f1610504366004613931565b6112a0565b348015610514575f5ffd5b506103da7f000000000000000000000000000000000000000000000000000000000000000081565b348015610547575f5ffd5b506102bf61055636600461395a565b611364565b348015610566575f5ffd5b506102f1610575366004613931565b61142e565b348015610585575f5ffd5b506105e3610594366004613691565b600d6020525f908152604090208054600182015460028301546003840154600485015460059095015473ffffffffffffffffffffffffffffffffffffffff948516959385169490921692909186565b6040805173ffffffffffffffffffffffffffffffffffffffff9788168152958716602087015293909516928401929092526060830152608082015260a081019190915260c0016102c9565b348015610639575f5ffd5b506008546103da9073ffffffffffffffffffffffffffffffffffffffff1681565b348015610665575f5ffd5b506102bf7f000000000000000000000000000000000000000000000000000000000000000081565b348015610698575f5ffd5b506106ac6106a7366004613625565b6114c7565b6040516102c99190613a0f565b3480156106c4575f5ffd5b506102f16106d33660046135bb565b611c98565b3480156106e3575f5ffd5b506102bf61271081565b3480156106f8575f5ffd5b506102bf60045481565b34801561070d575f5ffd5b506103da61071c3660046135bb565b600f6020525f908152604090205473ffffffffffffffffffffffffffffffffffffffff1681565b610756610751366004613a21565b611dc6565b6040516102c99190613b5a565b34801561076e575f5ffd5b506103da7f000000000000000000000000000000000000000000000000000000000000000081565b3480156107a1575f5ffd5b506102bf6107b03660046135bb565b60116020525f908152604090205481565b3480156107cc575f5ffd5b506102f16107db366004613625565b611e29565b3480156107eb575f5ffd5b506102bf60015481565b348015610800575f5ffd5b506102bf60035481565b348015610815575f5ffd5b506102bf60065481565b34801561082a575f5ffd5b506102bf7fe6194b93a7bff0a54130ed8cd277223408a77f3e48bb5104a9db96d334f962ca81565b34801561085d575f5ffd5b506102bf61207f565b348015610871575f5ffd5b506102bf7f8b73c3c69bb8fe3d512ecc4cf759cc79239f7b179b0ffacaa9a75d522b39400f81565b6102bf6108a7366004613b6c565b6120ba565b3480156108b7575f5ffd5b506102bf5f5481565b3480156108cb575f5ffd5b506109086040518060400160405280600581526020017f312e312e3000000000000000000000000000000000000000000000000000000081525081565b6040516102c99190613c0f565b60085473ffffffffffffffffffffffffffffffffffffffff16331461098d576008546040517fa43d6ada00000000000000000000000000000000000000000000000000000000815233600482015273ffffffffffffffffffffffffffffffffffffffff90911660248201526044015b60405180910390fd5b8281146109d0576040517f8151c1100000000000000000000000000000000000000000000000000000000081526004810184905260248101829052604401610984565b5f5b83811015610afa575f8585838181106109ed576109ed613c21565b9050602002016020810190610a0291906135bb565b73ffffffffffffffffffffffffffffffffffffffff1603610a4f576040517fd92e233d00000000000000000000000000000000000000000000000000000000815260040160405180910390fd5b828282818110610a6157610a61613c21565b9050602002016020810190610a769190613c5d565b600e5f878785818110610a8b57610a8b613c21565b9050602002016020810190610aa091906135bb565b73ffffffffffffffffffffffffffffffffffffffff16815260208101919091526040015f2080547fffffffffffffffffffffffffffffffffffffffffffffffffffffffffffffff00169115159190911790556001016109d2565b507f8cc6be981009d13170c616af494b7d671ed2d84b7e6891e4c8f21fe065c00dfc84848484604051610b309493929190613cc1565b60405180910390a150505050565b60085473ffffffffffffffffffffffffffffffffffffffff163314610bb1576008546040517fa43d6ada00000000000000000000000000000000000000000000000000000000815233600482015273ffffffffffffffffffffffffffffffffffffffff9091166024820152604401610984565b73ffffffffffffffffffffffffffffffffffffffff8116610bfe576040517fd92e233d00000000000000000000000000000000000000000000000000000000815260040160405180910390fd5b7fe6194b93a7bff0a54130ed8cd277223408a77f3e48bb5104a9db96d334f962ca81905560405173ffffffffffffffffffffffffffffffffffffffff8216907f310ba5f1d2ed074b51e2eccd052a47ae9ab7c6b800d1fca3db3999d6a592ca03905f90a250565b5f73ffffffffffffffffffffffffffffffffffffffff8216610cb3576040517fd92e233d00000000000000000000000000000000000000000000000000000000815260040160405180910390fd5b73ffffffffffffffffffffffffffffffffffffffff8281165f908152600f602052604090205416610d28576040517f32b2baa300000000000000000000000000000000000000000000000000000000815273ffffffffffffffffffffffffffffffffffffffff83166004820152602401610984565b8173ffffffffffffffffffffffffffffffffffffffff1663e7f43c686040518163ffffffff1660e01b8152600401602060405180830381865afa158015610d71573d5f5f3e3d5ffd5b505050506040513d601f19601f82011682018060405250810190610d959190613d1b565b92915050565b5f818152600d60209081526040808320815160c081018352815473ffffffffffffffffffffffffffffffffffffffff90811680835260018401548216958301959095526002830154169281019290925260038101546060830152600481015460808301526005015460a082015290610e1557505f92915050565b602081015173ffffffffffffffffffffffffffffffffffffffff1615610e3e5750600392915050565b8060600151421115610e535750600292915050565b50600192915050565b73ffffffffffffffffffffffffffffffffffffffff82165f908152600e602052604081205460ff16610ed2576040517f32b2baa300000000000000000000000000000000000000000000000000000000815273ffffffffffffffffffffffffffffffffffffffff84166004820152602401610984565b6040517f0f7fb56d00000000000000000000000000000000000000000000000000000000815273ffffffffffffffffffffffffffffffffffffffff841690630f7fb56d90610f48907f00000000000000000000000000000000000000000000000000000000000000009088908790600401613d36565b6020604051808303815f875af1158015610f64573d5f5f3e3d5ffd5b505050506040513d601f19601f82011682018060405250810190610f889190613d1b565b905073ffffffffffffffffffffffffffffffffffffffff8116610fd7576040517fd92e233d00000000000000000000000000000000000000000000000000000000815260040160405180910390fd5b73ffffffffffffffffffffffffffffffffffffffff8181165f908152600f6020526040812080547fffffffffffffffffffffffff00000000000000000000000000000000000000001692861692909217909155600680549161103883613da0565b91905055508273ffffffffffffffffffffffffffffffffffffffff16848273ffffffffffffffffffffffffffffffffffffffff167f46e1ca45c09520471c43e2e88eca33bb51803011cfd456933629dcc645ecacd660405160405180910390a49392505050565b6007546002036110db576040517f8beb9d1600000000000000000000000000000000000000000000000000000000815260040160405180910390fd5b60026007558415806110ed5750848314155b1561112e576040517f8151c1100000000000000000000000000000000000000000000000000000000081526004810186905260248101849052604401610984565b5f3373ffffffffffffffffffffffffffffffffffffffff16632763b8da6040518163ffffffff1660e01b8152600401602060405180830381865afa158015611178573d5f5f3e3d5ffd5b505050506040513d601f19601f8201168201806040525081019061119c9190613dd7565b90506111ac8882898989896121ab565b5f8181526010602052604090205473ffffffffffffffffffffffffffffffffffffffff1680611207576040517fd92e233d00000000000000000000000000000000000000000000000000000000815260040160405180910390fd5b6040517f6072dd2c00000000000000000000000000000000000000000000000000000000815273ffffffffffffffffffffffffffffffffffffffff821690636072dd2c906112639033908d908b908b908b908b90600401613e7e565b5f604051808303815f87803b15801561127a575f5ffd5b505af115801561128c573d5f5f3e3d5ffd5b505060016007555050505050505050505050565b60085473ffffffffffffffffffffffffffffffffffffffff163314611313576008546040517fa43d6ada00000000000000000000000000000000000000000000000000000000815233600482015273ffffffffffffffffffffffffffffffffffffffff9091166024820152604401610984565b61131e8383836128de565b60408051848152602081018490529081018290527f64d0972bd5d0c2828d80911b61084d86d61214c3081656ca3a720047a88320359060600160405180910390a1505050565b5f61136d61207f565b85516020968701206040805130818a015273ffffffffffffffffffffffffffffffffffffffff9a8b1681830152989099166060890152608088015260a08701949094525060c085019190915260e08085019190915284518085039091018152610100840185528051908301207f19010000000000000000000000000000000000000000000000000000000000006101208501526101228401919091526101428084019190915283518084039091018152610162909201909252805191012090565b60085473ffffffffffffffffffffffffffffffffffffffff161561147e576040517f0dc149f000000000000000000000000000000000000000000000000000000000815260040160405180910390fd5b6114898383836128de565b611491612a04565b5f555050600880547fffffffffffffffffffffffff00000000000000000000000000000000000000001633179055506001600755565b6060600754600203611505576040517f8beb9d1600000000000000000000000000000000000000000000000000000000815260040160405180910390fd5b60026007558315806115175750838214155b15611558576040517f8151c1100000000000000000000000000000000000000000000000000000000081526004810185905260248101839052604401610984565b5f61156233610c65565b90505f858067ffffffffffffffff81111561157f5761157f6136e7565b6040519080825280602002602001820160405280156115a8578160200160208202803683370190505b5093505f8167ffffffffffffffff8111156115c5576115c56136e7565b6040519080825280602002602001820160405280156115ee578160200160208202803683370190505b5090505f8267ffffffffffffffff81111561160b5761160b6136e7565b604051908082528060200260200182016040528015611634578160200160208202803683370190505b5090505f3373ffffffffffffffffffffffffffffffffffffffff16632763b8da6040518163ffffffff1660e01b8152600401602060405180830381865afa158015611681573d5f5f3e3d5ffd5b505050506040513d601f19601f820116820180604052508101906116a59190613dd7565b90505f5b84811015611a32575f600d5f8e8e858181106116c7576116c7613c21565b602090810292909201358352508101919091526040015f20805490915073ffffffffffffffffffffffffffffffffffffffff1680611731576040517fd92e233d00000000000000000000000000000000000000000000000000000000815260040160405180910390fd5b83826005015414611771576040517f7fec71d700000000000000000000000000000000000000000000000000000000815260048101859052602401610984565b600182015473ffffffffffffffffffffffffffffffffffffffff1615611798575050611a2a565b81600401548584815181106117af576117af613c21565b6020026020010181815250508483815181106117cd576117cd613c21565b60200260200101518c8c858181106117e7576117e7613c21565b9050602002013511156117fb575050611a2a565b73ffffffffffffffffffffffffffffffffffffffff811633146118f25781600301544211156118eb576040517f4225d37a00000000000000000000000000000000000000000000000000000000815273ffffffffffffffffffffffffffffffffffffffff82811660048301527fffffffffffffffffffffffffffffffffffffffffffffffffffffffffffffffff60248301527f00000000000000000000000000000000000000000000000000000000000000001690634225d37a906044015f604051808303815f87803b1580156118d0575f5ffd5b505af11580156118e2573d5f5f3e3d5ffd5b505050506118f2565b5050611a2a565b6001820180547fffffffffffffffffffffffff000000000000000000000000000000000000000016331790556002820154865173ffffffffffffffffffffffffffffffffffffffff919091169087908590811061195157611951613c21565b602002602001019073ffffffffffffffffffffffffffffffffffffffff16908173ffffffffffffffffffffffffffffffffffffffff1681525050600a5f8785815181106119a0576119a0613c21565b602002602001015173ffffffffffffffffffffffffffffffffffffffff1673ffffffffffffffffffffffffffffffffffffffff1681526020019081526020015f205f8154809291906119f190613da0565b919050555060018a8481518110611a0a57611a0a613c21565b9115156020928302919091019091015287611a2481613da0565b98505050505b6001016116a9565b508415611c1a578460045f828254611a4a9190613ee9565b9091555050335f908152600b602052604081208054879290611a6d908490613efc565b909155505073ffffffffffffffffffffffffffffffffffffffff86165f908152600c602052604081208054879290611aa6908490613efc565b90915550506040517f4225d37a000000000000000000000000000000000000000000000000000000008152336004820152602481018690527f000000000000000000000000000000000000000000000000000000000000000073ffffffffffffffffffffffffffffffffffffffff1690634225d37a906044015f604051808303815f87803b158015611b36575f5ffd5b505af1158015611b48573d5f5f3e3d5ffd5b5050505f8281526010602052604090205473ffffffffffffffffffffffffffffffffffffffff16905080611ba8576040517fd92e233d00000000000000000000000000000000000000000000000000000000815260040160405180910390fd5b8073ffffffffffffffffffffffffffffffffffffffff166379e4afe833868b8e8e896040518763ffffffff1660e01b8152600401611beb96959493929190613f0f565b5f604051808303815f87803b158015611c02575f5ffd5b505af1158015611c14573d5f5f3e3d5ffd5b50505050505b82604051611c289190613fba565b60405180910390203373ffffffffffffffffffffffffffffffffffffffff167f894bb814a80f77e14febccf552394d95b38cc21a6dda1b0cf26434433fdf3e4c878e8e8c604051611c7c9493929190614005565b60405180910390a3505060016007555092979650505050505050565b60085473ffffffffffffffffffffffffffffffffffffffff163314611d0b576008546040517fa43d6ada00000000000000000000000000000000000000000000000000000000815233600482015273ffffffffffffffffffffffffffffffffffffffff9091166024820152604401610984565b73ffffffffffffffffffffffffffffffffffffffff8116611d58576040517fd92e233d00000000000000000000000000000000000000000000000000000000815260040160405180910390fd5b600880547fffffffffffffffffffffffff00000000000000000000000000000000000000001673ffffffffffffffffffffffffffffffffffffffff83169081179091556040517f4ffd725fc4a22075e9ec71c59edf9c38cdeb588a91b24fc5b61388c5be41282b905f90a250565b6060600754600203611e04576040517f8beb9d1600000000000000000000000000000000000000000000000000000000815260040160405180910390fd5b6002600755611e1888888888888888612b02565b600160075598975050505050505050565b60085473ffffffffffffffffffffffffffffffffffffffff163314611e9c576008546040517fa43d6ada00000000000000000000000000000000000000000000000000000000815233600482015273ffffffffffffffffffffffffffffffffffffffff9091166024820152604401610984565b828114611edf576040517f8151c1100000000000000000000000000000000000000000000000000000000081526004810184905260248101829052604401610984565b5f5b8381101561204957848482818110611efb57611efb613c21565b905060200201355f5f1b03611f3c576040517f7c946ed700000000000000000000000000000000000000000000000000000000815260040160405180910390fd5b5f838383818110611f4f57611f4f613c21565b9050602002016020810190611f6491906135bb565b73ffffffffffffffffffffffffffffffffffffffff1603611fb1576040517fd92e233d00000000000000000000000000000000000000000000000000000000815260040160405180910390fd5b828282818110611fc357611fc3613c21565b9050602002016020810190611fd891906135bb565b60105f878785818110611fed57611fed613c21565b9050602002013581526020019081526020015f205f6101000a81548173ffffffffffffffffffffffffffffffffffffffff021916908373ffffffffffffffffffffffffffffffffffffffff160217905550806001019050611ee1565b507fa9759667b17e564f26a0d91ce1c5e4a1dc3910aee992dc3f5f4da0a59d48f3cb84848484604051610b30949392919061403b565b5f7f000000000000000000000000000000000000000000000000000000000000000046146120b4576120af612a04565b905090565b505f5490565b5f6007546002036120f7576040517f8beb9d1600000000000000000000000000000000000000000000000000000000815260040160405180910390fd5b60026007556040805160018082528183019092525f91816020015b60608152602001906001900390816121125750506040805160018082528183019092529192505f91906020808301908036833701905050905089825f8151811061215e5761215e613c21565b6020026020010181905250612178828a8a8a8a8a8a612b02565b9050805f8151811061218c5761218c613c21565b6020026020010151925060016007819055505050979650505050505050565b5f6121b533610c65565b9050835f8167ffffffffffffffff8111156121d2576121d26136e7565b6040519080825280602002602001820160405280156121fb578160200160208202803683370190505b5073ffffffffffffffffffffffffffffffffffffffff8a165f908152601160205260408120549192505b838110156125c75788888281811061223f5761223f613c21565b90506020028101906122519190614061565b61225b908061409d565b90505f03612295576040517f7c946ed700000000000000000000000000000000000000000000000000000000815260040160405180910390fd5b61231e338c8b8b858181106122ac576122ac613c21565b90506020028101906122be9190614061565b6122c8908061409d565b8080601f0160208091040260200160405190810160405280939291908181526020018383808284375f920191909152508d92508c915087905081811061231057612310613c21565b905060200201358e87611364565b83828151811061233057612330613c21565b6020026020010181815250506123c58b84838151811061235257612352613c21565b60200260200101518b8b8581811061236c5761236c613c21565b905060200281019061237e9190614061565b61238c90602081019061409d565b8080601f0160208091040260200160405190810160405280939291908181526020018383808284375f9201919091525061327292505050565b5f600d5f8584815181106123db576123db613c21565b60209081029190910181015182528101919091526040015f20805490915073ffffffffffffffffffffffffffffffffffffffff16156124635783828151811061242657612426613c21565b60200260200101516040517fec0db69800000000000000000000000000000000000000000000000000000000815260040161098491815260200190565b8054337fffffffffffffffffffffffff0000000000000000000000000000000000000000918216811783556001830180548316909117905560028201805490911673ffffffffffffffffffffffffffffffffffffffff8e161790558787838181106124d0576124d0613c21565b6020029190910135600483015550600581018b9055826124ef81613da0565b9350508573ffffffffffffffffffffffffffffffffffffffff163373ffffffffffffffffffffffffffffffffffffffff167fb0d013658abb05dd269ff3ab257175d5ae3fa4107d4e142abd96e947cd5cb06f86858151811061255357612553613c21565b60200260200101518b8b8781811061256d5761256d613c21565b905060200201358e8e8881811061258657612586613c21565b90506020028101906125989190614061565b6125a690604081019061409d565b6040516125b694939291906140fe565b60405180910390a350600101612225565b5073ffffffffffffffffffffffffffffffffffffffff8a165f908152601160209081526040808320849055600990915281208054859290612609908490613efc565b909155505073ffffffffffffffffffffffffffffffffffffffff8a165f908152600a602052604081208054859290612642908490613efc565b9091555050335f908152600b602052604081208054859290612665908490613efc565b909155505073ffffffffffffffffffffffffffffffffffffffff84165f908152600c60205260408120805485929061269e908490613efc565b925050819055508260055f8282546126b69190613efc565b90915550506040517f55e7d04400000000000000000000000000000000000000000000000000000000815273ffffffffffffffffffffffffffffffffffffffff8b81166004830152336024830152604482018590527f000000000000000000000000000000000000000000000000000000000000000016906355e7d044906064015f604051808303815f87803b15801561274e575f5ffd5b505af1158015612760573d5f5f3e3d5ffd5b50506040517f4225d37a000000000000000000000000000000000000000000000000000000008152336004820152602481018690527f000000000000000000000000000000000000000000000000000000000000000073ffffffffffffffffffffffffffffffffffffffff169250634225d37a91506044015f604051808303815f87803b1580156127ef575f5ffd5b505af1158015612801573d5f5f3e3d5ffd5b50506040517f9680b60300000000000000000000000000000000000000000000000000000000815260048101869052339250639680b60391506024015f604051808303815f87803b158015612854575f5ffd5b505af1158015612866573d5f5f3e3d5ffd5b505050508973ffffffffffffffffffffffffffffffffffffffff163373ffffffffffffffffffffffffffffffffffffffff167ff980d83e9456535b0f9f3634d171df2a5f052f5d5e706b75d30c4e0433da927d8451856040516128ca929190614127565b60405180910390a350505050505050505050565b8115806128e9575080155b15612920576040517f7c946ed700000000000000000000000000000000000000000000000000000000815260040160405180910390fd5b612710831115612967576040517f7ae59685000000000000000000000000000000000000000000000000000000008152600481018490526127106024820152604401610984565b808211156129ab576040517f7ae596850000000000000000000000000000000000000000000000000000000081526004810183905260248101829052604401610984565b63ffffffff8111156129f6576040517f7ae596850000000000000000000000000000000000000000000000000000000081526004810182905263ffffffff6024820152604401610984565b600192909255600255600355565b5f7f8b73c3c69bb8fe3d512ecc4cf759cc79239f7b179b0ffacaa9a75d522b39400f7ff376b6313a0837eb351511248cfe7dcc1cd26c49b8e0a47e1eb369dd62c425db6040518060400160405280600581526020017f312e312e30000000000000000000000000000000000000000000000000000000815250604051602001612a8d9190613c0f565b604080517fffffffffffffffffffffffffffffffffffffffffffffffffffffffffffffffe081840301815282825280516020918201209083019490945281019190915260608101919091524660808201523060a082015260c00160405160208183030381529060405280519060200120905090565b606063ffffffff612b134286613efc565b1115612b6357612b234285613efc565b6040517f7ae59685000000000000000000000000000000000000000000000000000000008152600481019190915263ffffffff6024820152604401610984565b600254841080612b74575060035484115b15612bc1576002546003546040517feb373cfe0000000000000000000000000000000000000000000000000000000081526004810187905260248101929092526044820152606401610984565b861580612bcc575085155b15612c03576040517f7c946ed700000000000000000000000000000000000000000000000000000000815260040160405180910390fd5b87515f819003612c3f576040517f7c946ed700000000000000000000000000000000000000000000000000000000815260040160405180910390fd5b612c4886610c65565b508067ffffffffffffffff811115612c6257612c626136e7565b604051908082528060200260200182016040528015612c8b578160200160208202803683370190505b5091505f8673ffffffffffffffffffffffffffffffffffffffff16632cc0fcb26040518163ffffffff1660e01b8152600401602060405180830381865afa158015612cd8573d5f5f3e3d5ffd5b505050506040513d601f19601f82011682018060405250810190612cfc9190613dd7565b905088811115612d42576040517f7ae5968500000000000000000000000000000000000000000000000000000000815260048101829052602481018a9052604401610984565b8673ffffffffffffffffffffffffffffffffffffffff16632763b8da6040518163ffffffff1660e01b8152600401602060405180830381865afa158015612d8b573d5f5f3e3d5ffd5b505050506040513d601f19601f82011682018060405250810190612daf9190613dd7565b8814612dea576040517f7fec71d700000000000000000000000000000000000000000000000000000000815260048101899052602401610984565b335f90815260116020526040812054905b8b51811015612f9d578b8181518110612e1657612e16613c21565b6020026020010151515f03612e57576040517f7c946ed700000000000000000000000000000000000000000000000000000000815260040160405180910390fd5b612e7e89338e8481518110612e6e57612e6e613c21565b6020026020010151868e87611364565b858281518110612e9057612e90613c21565b6020026020010181815250505f600d5f878481518110612eb257612eb2613c21565b60209081029190910181015182528101919091526040015f20805490915073ffffffffffffffffffffffffffffffffffffffff1615612efd5785828151811061242657612426613c21565b80547fffffffffffffffffffffffff00000000000000000000000000000000000000001673ffffffffffffffffffffffffffffffffffffffff8b16178155612f45428a613efc565b60038201556002810180547fffffffffffffffffffffffff0000000000000000000000000000000000000000163317905560048101849055600581018b905582612f8e81613da0565b93505050806001019050612dfb565b50335f9081526011602090815260408083208490558b8352601090915290205473ffffffffffffffffffffffffffffffffffffffff168061300a576040517fd92e233d00000000000000000000000000000000000000000000000000000000815260040160405180910390fd5b6040517f38603a3900000000000000000000000000000000000000000000000000000000815273ffffffffffffffffffffffffffffffffffffffff8216906338603a39903490613066903390899089908e908e90600401614147565b5f604051808303818588803b15801561307d575f5ffd5b505af115801561308f573d5f5f3e3d5ffd5b50506040517f55e7d04400000000000000000000000000000000000000000000000000000000815233600482015273ffffffffffffffffffffffffffffffffffffffff8d81166024830152604482018990527f00000000000000000000000000000000000000000000000000000000000000001693506355e7d044925060640190505f604051808303815f87803b158015613128575f5ffd5b505af115801561313a573d5f5f3e3d5ffd5b5050335f908152600960205260408120805488945090925061315d908490613efc565b925050819055508360045f8282546131759190613efc565b925050819055508360055f82825461318d9190613efc565b925050819055508873ffffffffffffffffffffffffffffffffffffffff1663be2641de868e6040518363ffffffff1660e01b81526004016131cf929190614182565b5f604051808303815f87803b1580156131e6575f5ffd5b505af11580156131f8573d5f5f3e3d5ffd5b505050503373ffffffffffffffffffffffffffffffffffffffff168973ffffffffffffffffffffffffffffffffffffffff167f5d60556939d4ab71b3129033c865bf7e828306916fd94fd35019d3d530eb36b3868860405161325b929190614127565b60405180910390a350505050979650505050505050565b73ffffffffffffffffffffffffffffffffffffffff83166132bf576040517fd92e233d00000000000000000000000000000000000000000000000000000000815260040160405180910390fd5b73ffffffffffffffffffffffffffffffffffffffff83163b156133d5576040517f1626ba7e000000000000000000000000000000000000000000000000000000008082529073ffffffffffffffffffffffffffffffffffffffff851690631626ba7e906133329086908690600401614215565b602060405180830381865afa15801561334d573d5f5f3e3d5ffd5b505050506040513d601f19601f82011682018060405250810190613371919061422d565b7fffffffff00000000000000000000000000000000000000000000000000000000160361339d57505050565b8282826040517f02d51bb200000000000000000000000000000000000000000000000000000000815260040161098493929190613d36565b80516041146134175780516040517f1d9f5a5f00000000000000000000000000000000000000000000000000000000815261098491839160419060040161426c565b5f8160408151811061342b5761342b613c21565b016020015160f81c9050600481101561344c57613449601b82614290565b90505b602082015160408301517f7fffffffffffffffffffffffffffffff5d576e7357a4501ddfe92f46681b20a08111156134b6578585856040517f02d51bb200000000000000000000000000000000000000000000000000000000815260040161098493929190613d36565b604080515f8082526020820180845288905260ff861692820192909252606081018490526080810183905260019060a0016020604051602081039080840390855afa158015613507573d5f5f3e3d5ffd5b5050506020604051035190508673ffffffffffffffffffffffffffffffffffffffff168173ffffffffffffffffffffffffffffffffffffffff161461357e578686866040517f02d51bb200000000000000000000000000000000000000000000000000000000815260040161098493929190613d36565b50505050505050565b73ffffffffffffffffffffffffffffffffffffffff811681146135a8575f5ffd5b50565b80356135b681613587565b919050565b5f602082840312156135cb575f5ffd5b81356135d681613587565b9392505050565b5f5f83601f8401126135ed575f5ffd5b50813567ffffffffffffffff811115613604575f5ffd5b6020830191508360208260051b850101111561361e575f5ffd5b9250929050565b5f5f5f5f60408587031215613638575f5ffd5b843567ffffffffffffffff81111561364e575f5ffd5b61365a878288016135dd565b909550935050602085013567ffffffffffffffff811115613679575f5ffd5b613685878288016135dd565b95989497509550505050565b5f602082840312156136a1575f5ffd5b5035919050565b60208101600483106136e1577f4e487b71000000000000000000000000000000000000000000000000000000005f52602160045260245ffd5b91905290565b7f4e487b71000000000000000000000000000000000000000000000000000000005f52604160045260245ffd5b604051601f82017fffffffffffffffffffffffffffffffffffffffffffffffffffffffffffffffe016810167ffffffffffffffff8111828210171561375b5761375b6136e7565b604052919050565b5f82601f830112613772575f5ffd5b813567ffffffffffffffff81111561378c5761378c6136e7565b6137bd60207fffffffffffffffffffffffffffffffffffffffffffffffffffffffffffffffe0601f84011601613714565b8181528460208386010111156137d1575f5ffd5b816020850160208301375f918101602001919091529392505050565b5f5f5f606084860312156137ff575f5ffd5b83359250602084013561381181613587565b9150604084013567ffffffffffffffff81111561382c575f5ffd5b61383886828701613763565b9150509250925092565b5f5f83601f840112613852575f5ffd5b50813567ffffffffffffffff811115613869575f5ffd5b60208301915083602082850101111561361e575f5ffd5b5f5f5f5f5f5f5f6080888a031215613896575f5ffd5b87356138a181613587565b9650602088013567ffffffffffffffff8111156138bc575f5ffd5b6138c88a828b016135dd565b909750955050604088013567ffffffffffffffff8111156138e7575f5ffd5b6138f38a828b016135dd565b909550935050606088013567ffffffffffffffff811115613912575f5ffd5b61391e8a828b01613842565b989b979a50959850939692959293505050565b5f5f5f60608486031215613943575f5ffd5b505081359360208301359350604090920135919050565b5f5f5f5f5f5f60c0878903121561396f575f5ffd5b863561397a81613587565b9550602087013561398a81613587565b9450604087013567ffffffffffffffff8111156139a5575f5ffd5b6139b189828a01613763565b969995985095966060810135965060808101359560a090910135945092505050565b5f8151808452602084019350602083015f5b82811015613a0557815115158652602095860195909101906001016139e5565b5093949350505050565b602081525f6135d660208301846139d3565b5f5f5f5f5f5f5f60c0888a031215613a37575f5ffd5b873567ffffffffffffffff811115613a4d575f5ffd5b8801601f81018a13613a5d575f5ffd5b803567ffffffffffffffff811115613a7757613a776136e7565b8060051b613a8760208201613714565b9182526020818401810192908101908d841115613aa2575f5ffd5b6020850192505b83831015613ae857823567ffffffffffffffff811115613ac7575f5ffd5b613ad68f602083890101613763565b83525060209283019290910190613aa9565b9a50505050602089013596505060408801359450613b08606089016135ab565b93506080880135925060a088013567ffffffffffffffff811115613912575f5ffd5b5f8151808452602084019350602083015f5b82811015613a05578151865260209586019590910190600101613b3c565b602081525f6135d66020830184613b2a565b5f5f5f5f5f5f5f60c0888a031215613b82575f5ffd5b873567ffffffffffffffff811115613b98575f5ffd5b613ba48a828b01613763565b97505060208801359550604088013594506060880135613b0881613587565b5f81518084528060208401602086015e5f6020828601015260207fffffffffffffffffffffffffffffffffffffffffffffffffffffffffffffffe0601f83011685010191505092915050565b602081525f6135d66020830184613bc3565b7f4e487b71000000000000000000000000000000000000000000000000000000005f52603260045260245ffd5b803580151581146135b6575f5ffd5b5f60208284031215613c6d575f5ffd5b6135d682613c4e565b8183526020830192505f815f5b84811015613a05578135613c9681613587565b73ffffffffffffffffffffffffffffffffffffffff1686526020958601959190910190600101613c83565b604081525f613cd4604083018688613c76565b8281036020808501919091528482528591015f5b85811015613d0f57613cf983613c4e565b1515825260209283019290910190600101613ce8565b50979650505050505050565b5f60208284031215613d2b575f5ffd5b81516135d681613587565b73ffffffffffffffffffffffffffffffffffffffff84168152826020820152606060408201525f613d6a6060830184613bc3565b95945050505050565b7f4e487b71000000000000000000000000000000000000000000000000000000005f52601160045260245ffd5b5f7fffffffffffffffffffffffffffffffffffffffffffffffffffffffffffffffff8203613dd057613dd0613d73565b5060010190565b5f60208284031215613de7575f5ffd5b5051919050565b8183525f7f07ffffffffffffffffffffffffffffffffffffffffffffffffffffffffffffff831115613e1e575f5ffd5b8260051b80836020870137939093016020019392505050565b81835281816020850137505f602082840101525f60207fffffffffffffffffffffffffffffffffffffffffffffffffffffffffffffffe0601f840116840101905092915050565b73ffffffffffffffffffffffffffffffffffffffff8716815273ffffffffffffffffffffffffffffffffffffffff86166020820152608060408201525f613ec9608083018688613dee565b8281036060840152613edc818587613e37565b9998505050505050505050565b81810381811115610d9557610d95613d73565b80820180821115610d9557610d95613d73565b5f60a0820173ffffffffffffffffffffffffffffffffffffffff8916835260a0602084015280885180835260c08501915060208a0192505f5b81811015613f7c57835173ffffffffffffffffffffffffffffffffffffffff16835260209384019390920191600101613f48565b50508381036040850152613f9081896139d3565b9150508281036060840152613fa6818688613dee565b90508281036080840152613edc8185613b2a565b81515f90829060208501835b82811015613ffa57815173ffffffffffffffffffffffffffffffffffffffff16845260209384019390910190600101613fc6565b509195945050505050565b848152606060208201525f61401e606083018587613dee565b828103604084015261403081856139d3565b979650505050505050565b604081525f61404e604083018688613dee565b8281036020840152614030818587613c76565b5f82357fffffffffffffffffffffffffffffffffffffffffffffffffffffffffffffffa1833603018112614093575f5ffd5b9190910192915050565b5f5f83357fffffffffffffffffffffffffffffffffffffffffffffffffffffffffffffffe18436030181126140d0575f5ffd5b83018035915067ffffffffffffffff8211156140ea575f5ffd5b60200191503681900382131561361e575f5ffd5b848152836020820152606060408201525f61411d606083018486613e37565b9695505050505050565b828152604060208201525f61413f6040830184613b2a565b949350505050565b73ffffffffffffffffffffffffffffffffffffffff86168152846020820152836040820152608060608201525f614030608083018486613e37565b604081525f6141946040830185613b2a565b828103602084015280845180835260208301915060208160051b840101602087015f5b83811015614207577fffffffffffffffffffffffffffffffffffffffffffffffffffffffffffffffe08684030185526141f1838351613bc3565b60209586019590935091909101906001016141b7565b509098975050505050505050565b828152604060208201525f61413f6040830184613bc3565b5f6020828403121561423d575f5ffd5b81517fffffffff00000000000000000000000000000000000000000000000000000000811681146135d6575f5ffd5b606081525f61427e6060830186613bc3565b60208301949094525060400152919050565b60ff8181168382160190811115610d9557610d95613d7356fea264697066735822122070b87f2f2c57b62f36cabd56d8dd64538b7560a7499fb0d0f7562613c59be01964736f6c634300081c0033",
  "linkReferences": {},
  "deployedLinkReferences": {}
}